{
  "contractName": "ControlledToken",
  "abi": [
    {
      "inputs": [
        {
          "internalType": "string",
          "name": "_name",
          "type": "string"
        },
        {
          "internalType": "string",
          "name": "_symbol",
          "type": "string"
        },
        {
          "internalType": "address",
          "name": "_controller",
          "type": "address"
        }
      ],
      "stateMutability": "nonpayable",
      "type": "constructor"
    },
    {
      "anonymous": false,
      "inputs": [
        {
          "indexed": true,
          "internalType": "address",
          "name": "owner",
          "type": "address"
        },
        {
          "indexed": true,
          "internalType": "address",
          "name": "spender",
          "type": "address"
        },
        {
          "indexed": false,
          "internalType": "uint256",
          "name": "value",
          "type": "uint256"
        }
      ],
      "name": "Approval",
      "type": "event"
    },
    {
      "anonymous": false,
      "inputs": [
        {
          "indexed": true,
          "internalType": "address",
          "name": "oldController",
          "type": "address"
        },
        {
          "indexed": true,
          "internalType": "address",
          "name": "newController",
          "type": "address"
        }
      ],
      "name": "ControllerRoleTransferred",
      "type": "event"
    },
    {
      "anonymous": false,
      "inputs": [
        {
          "indexed": true,
          "internalType": "address",
          "name": "from",
          "type": "address"
        },
        {
          "indexed": true,
          "internalType": "address",
          "name": "to",
          "type": "address"
        },
        {
          "indexed": false,
          "internalType": "uint256",
          "name": "value",
          "type": "uint256"
        }
      ],
      "name": "Transfer",
      "type": "event"
    },
    {
      "inputs": [
        {
          "internalType": "address",
          "name": "owner",
          "type": "address"
        },
        {
          "internalType": "address",
          "name": "spender",
          "type": "address"
        }
      ],
      "name": "allowance",
      "outputs": [
        {
          "internalType": "uint256",
          "name": "",
          "type": "uint256"
        }
      ],
      "stateMutability": "view",
      "type": "function"
    },
    {
      "inputs": [
        {
          "internalType": "address",
          "name": "spender",
          "type": "address"
        },
        {
          "internalType": "uint256",
          "name": "amount",
          "type": "uint256"
        }
      ],
      "name": "approve",
      "outputs": [
        {
          "internalType": "bool",
          "name": "",
          "type": "bool"
        }
      ],
      "stateMutability": "nonpayable",
      "type": "function"
    },
    {
      "inputs": [
        {
          "internalType": "address",
          "name": "account",
          "type": "address"
        }
      ],
      "name": "balanceOf",
      "outputs": [
        {
          "internalType": "uint256",
          "name": "",
          "type": "uint256"
        }
      ],
      "stateMutability": "view",
      "type": "function"
    },
    {
      "inputs": [],
      "name": "controller",
      "outputs": [
        {
          "internalType": "address",
          "name": "",
          "type": "address"
        }
      ],
      "stateMutability": "view",
      "type": "function"
    },
    {
      "inputs": [],
      "name": "decimals",
      "outputs": [
        {
          "internalType": "uint8",
          "name": "",
          "type": "uint8"
        }
      ],
      "stateMutability": "view",
      "type": "function"
    },
    {
      "inputs": [
        {
          "internalType": "address",
          "name": "spender",
          "type": "address"
        },
        {
          "internalType": "uint256",
          "name": "subtractedValue",
          "type": "uint256"
        }
      ],
      "name": "decreaseAllowance",
      "outputs": [
        {
          "internalType": "bool",
          "name": "",
          "type": "bool"
        }
      ],
      "stateMutability": "nonpayable",
      "type": "function"
    },
    {
      "inputs": [
        {
          "internalType": "address",
          "name": "spender",
          "type": "address"
        },
        {
          "internalType": "uint256",
          "name": "addedValue",
          "type": "uint256"
        }
      ],
      "name": "increaseAllowance",
      "outputs": [
        {
          "internalType": "bool",
          "name": "",
          "type": "bool"
        }
      ],
      "stateMutability": "nonpayable",
      "type": "function"
    },
    {
      "inputs": [],
      "name": "name",
      "outputs": [
        {
          "internalType": "string",
          "name": "",
          "type": "string"
        }
      ],
      "stateMutability": "view",
      "type": "function"
    },
    {
      "inputs": [],
      "name": "symbol",
      "outputs": [
        {
          "internalType": "string",
          "name": "",
          "type": "string"
        }
      ],
      "stateMutability": "view",
      "type": "function"
    },
    {
      "inputs": [],
      "name": "totalSupply",
      "outputs": [
        {
          "internalType": "uint256",
          "name": "",
          "type": "uint256"
        }
      ],
      "stateMutability": "view",
      "type": "function"
    },
    {
      "inputs": [
        {
          "internalType": "address",
          "name": "to",
          "type": "address"
        },
        {
          "internalType": "uint256",
          "name": "amount",
          "type": "uint256"
        }
      ],
      "name": "transfer",
      "outputs": [
        {
          "internalType": "bool",
          "name": "",
          "type": "bool"
        }
      ],
      "stateMutability": "nonpayable",
      "type": "function"
    },
    {
      "inputs": [
        {
          "internalType": "address",
          "name": "_newController",
          "type": "address"
        }
      ],
      "name": "transferControllerRole",
      "outputs": [],
      "stateMutability": "nonpayable",
      "type": "function"
    },
    {
      "inputs": [
        {
          "internalType": "address",
          "name": "from",
          "type": "address"
        },
        {
          "internalType": "address",
          "name": "to",
          "type": "address"
        },
        {
          "internalType": "uint256",
          "name": "amount",
          "type": "uint256"
        }
      ],
      "name": "transferFrom",
      "outputs": [
        {
          "internalType": "bool",
          "name": "",
          "type": "bool"
        }
      ],
      "stateMutability": "nonpayable",
      "type": "function"
    },
    {
      "inputs": [
        {
          "internalType": "address",
          "name": "_user",
          "type": "address"
        },
        {
          "internalType": "uint256",
          "name": "_amount",
          "type": "uint256"
        }
      ],
      "name": "controlledMint",
      "outputs": [],
      "stateMutability": "nonpayable",
      "type": "function"
    },
    {
      "inputs": [
        {
          "internalType": "address",
          "name": "_user",
          "type": "address"
        },
        {
          "internalType": "uint256",
          "name": "_amount",
          "type": "uint256"
        }
      ],
      "name": "controlledBurn",
      "outputs": [],
      "stateMutability": "nonpayable",
      "type": "function"
    }
  ],
  "bytecode": "0x60806040523480156200001157600080fd5b506040516200109838038062001098833981016040819052620000349162000227565b82828262000042816200007a565b50815162000058906004906020850190620000ca565b5080516200006e906005906020840190620000ca565b50505050505062000307565b600080546001600160a01b038381166001600160a01b0319831681178455604051919092169283917fad78fb3403b687df144f8a6b1a4dc5452ab29ebc2b2e4dfce732c14be63b40eb9190a35050565b828054620000d890620002b4565b90600052602060002090601f016020900481019282620000fc576000855562000147565b82601f106200011757805160ff191683800117855562000147565b8280016001018555821562000147579182015b82811115620001475782518255916020019190600101906200012a565b506200015592915062000159565b5090565b5b808211156200015557600081556001016200015a565b600082601f8301126200018257600080fd5b81516001600160401b03808211156200019f576200019f620002f1565b604051601f8301601f19908116603f01168101908282118183101715620001ca57620001ca620002f1565b81604052838152602092508683858801011115620001e757600080fd5b600091505b838210156200020b5785820183015181830184015290820190620001ec565b838211156200021d5760008385830101525b9695505050505050565b6000806000606084860312156200023d57600080fd5b83516001600160401b03808211156200025557600080fd5b620002638783880162000170565b945060208601519150808211156200027a57600080fd5b50620002898682870162000170565b604086015190935090506001600160a01b0381168114620002a957600080fd5b809150509250925092565b600181811c90821680620002c957607f821691505b60208210811415620002eb57634e487b7160e01b600052602260045260246000fd5b50919050565b634e487b7160e01b600052604160045260246000fd5b610d8180620003176000396000f3fe608060405234801561001057600080fd5b50600436106100f55760003560e01c80636e823b4711610097578063a457c2d711610066578063a457c2d7146101ee578063a9059cbb14610201578063dd62ed3e14610214578063f77c47911461024d57600080fd5b80636e823b471461019757806370a08231146101aa57806387f06ed7146101d357806395d89b41146101e657600080fd5b806318160ddd116100d357806318160ddd1461015057806323b872dd14610162578063313ce56714610175578063395093511461018457600080fd5b806304a7137e146100fa57806306fdde031461010f578063095ea7b31461012d575b600080fd5b61010d610108366004610c08565b610268565b005b6101176102b8565b6040516101249190610c32565b60405180910390f35b61014061013b366004610c08565b61034a565b6040519015158152602001610124565b6003545b604051908152602001610124565b610140610170366004610bcc565b610362565b60405160128152602001610124565b610140610192366004610c08565b610386565b61010d6101a5366004610c08565b6103c5565b6101546101b8366004610b77565b6001600160a01b031660009081526001602052604090205490565b61010d6101e1366004610b77565b610408565b6101176104b2565b6101406101fc366004610c08565b6104c1565b61014061020f366004610c08565b610553565b610154610222366004610b99565b6001600160a01b03918216600090815260026020908152604080832093909416825291909152205490565b6000546040516001600160a01b039091168152602001610124565b3361027b6000546001600160a01b031690565b6001600160a01b0316146102aa5760405162461bcd60e51b81526004016102a190610c87565b60405180910390fd5b6102b48282610561565b5050565b6060600480546102c790610cfa565b80601f01602080910402602001604051908101604052809291908181526020018280546102f390610cfa565b80156103405780601f1061031557610100808354040283529160200191610340565b820191906000526020600020905b81548152906001019060200180831161032357829003601f168201915b5050505050905090565b600033610358818585610640565b5060019392505050565b600033610370858285610765565b61037b8585856107f7565b506001949350505050565b3360008181526002602090815260408083206001600160a01b038716845290915281205490919061035890829086906103c0908790610ccb565b610640565b336103d86000546001600160a01b031690565b6001600160a01b0316146103fe5760405162461bcd60e51b81526004016102a190610c87565b6102b482826109c5565b3361041b6000546001600160a01b031690565b6001600160a01b0316146104415760405162461bcd60e51b81526004016102a190610c87565b6001600160a01b0381166104a65760405162461bcd60e51b815260206004820152602660248201527f436f6e74726f6c6c65723a20434f4e54524f4c4c45525f49535f5a45524f5f4160448201526544445245535360d01b60648201526084016102a1565b6104af81610b0b565b50565b6060600580546102c790610cfa565b3360008181526002602090815260408083206001600160a01b0387168452909152812054909190838110156105465760405162461bcd60e51b815260206004820152602560248201527f45524332303a2064656372656173656420616c6c6f77616e63652062656c6f77604482015264207a65726f60d81b60648201526084016102a1565b61037b8286868403610640565b6000336103588185856107f7565b6001600160a01b0382166105b75760405162461bcd60e51b815260206004820152601f60248201527f45524332303a206d696e7420746f20746865207a65726f20616464726573730060448201526064016102a1565b80600360008282546105c99190610ccb565b90915550506001600160a01b038216600090815260016020526040812080548392906105f6908490610ccb565b90915550506040518181526001600160a01b038316906000907fddf252ad1be2c89b69c2b068fc378daa952ba7f163c4a11628f55a4df523b3ef9060200160405180910390a35050565b6001600160a01b0383166106a25760405162461bcd60e51b8152602060048201526024808201527f45524332303a20617070726f76652066726f6d20746865207a65726f206164646044820152637265737360e01b60648201526084016102a1565b6001600160a01b0382166107035760405162461bcd60e51b815260206004820152602260248201527f45524332303a20617070726f766520746f20746865207a65726f206164647265604482015261737360f01b60648201526084016102a1565b6001600160a01b0383811660008181526002602090815260408083209487168084529482529182902085905590518481527f8c5be1e5ebec7d5bd14f71427d1e84f3dd0314c0f7b2291e5b200ac8c7c3b92591015b60405180910390a3505050565b6001600160a01b0383811660009081526002602090815260408083209386168352929052205460001981146107f157818110156107e45760405162461bcd60e51b815260206004820152601d60248201527f45524332303a20696e73756666696369656e7420616c6c6f77616e636500000060448201526064016102a1565b6107f18484848403610640565b50505050565b6001600160a01b03831661085b5760405162461bcd60e51b815260206004820152602560248201527f45524332303a207472616e736665722066726f6d20746865207a65726f206164604482015264647265737360d81b60648201526084016102a1565b6001600160a01b0382166108bd5760405162461bcd60e51b815260206004820152602360248201527f45524332303a207472616e7366657220746f20746865207a65726f206164647260448201526265737360e81b60648201526084016102a1565b6001600160a01b038316600090815260016020526040902054818110156109355760405162461bcd60e51b815260206004820152602660248201527f45524332303a207472616e7366657220616d6f756e7420657863656564732062604482015265616c616e636560d01b60648201526084016102a1565b6001600160a01b0380851660009081526001602052604080822085850390559185168152908120805484929061096c908490610ccb565b92505081905550826001600160a01b0316846001600160a01b03167fddf252ad1be2c89b69c2b068fc378daa952ba7f163c4a11628f55a4df523b3ef846040516109b891815260200190565b60405180910390a36107f1565b6001600160a01b038216610a255760405162461bcd60e51b815260206004820152602160248201527f45524332303a206275726e2066726f6d20746865207a65726f206164647265736044820152607360f81b60648201526084016102a1565b6001600160a01b03821660009081526001602052604090205481811015610a995760405162461bcd60e51b815260206004820152602260248201527f45524332303a206275726e20616d6f756e7420657863656564732062616c616e604482015261636560f01b60648201526084016102a1565b6001600160a01b0383166000908152600160205260408120838303905560038054849290610ac8908490610ce3565b90915550506040518281526000906001600160a01b038516907fddf252ad1be2c89b69c2b068fc378daa952ba7f163c4a11628f55a4df523b3ef90602001610758565b600080546001600160a01b038381166001600160a01b0319831681178455604051919092169283917fad78fb3403b687df144f8a6b1a4dc5452ab29ebc2b2e4dfce732c14be63b40eb9190a35050565b80356001600160a01b0381168114610b7257600080fd5b919050565b600060208284031215610b8957600080fd5b610b9282610b5b565b9392505050565b60008060408385031215610bac57600080fd5b610bb583610b5b565b9150610bc360208401610b5b565b90509250929050565b600080600060608486031215610be157600080fd5b610bea84610b5b565b9250610bf860208501610b5b565b9150604084013590509250925092565b60008060408385031215610c1b57600080fd5b610c2483610b5b565b946020939093013593505050565b600060208083528351808285015260005b81811015610c5f57858101830151858201604001528201610c43565b81811115610c71576000604083870101525b50601f01601f1916929092016040019392505050565b60208082526024908201527f436f6e74726f6c6c65723a2043414c4c45525f49535f4e4f545f434f4e54524f604082015263262622a960e11b606082015260800190565b60008219821115610cde57610cde610d35565b500190565b600082821015610cf557610cf5610d35565b500390565b600181811c90821680610d0e57607f821691505b60208210811415610d2f57634e487b7160e01b600052602260045260246000fd5b50919050565b634e487b7160e01b600052601160045260246000fdfea26469706673582212207333e626d8b334b0970c85ab7080aaafe38198e6eb72bc60ef9ed3aab52513ac64736f6c63430008070033",
  "immutableReferences": {},
  "source": "//SPDX-License-Identifier: MIT\npragma solidity ^0.8.0;\n\nimport \"@openzeppelin/contracts/token/ERC20/ERC20.sol\";\nimport \"../utils/Controller.sol\";\n\ncontract ControlledToken is Controller, ERC20 {\n  /**\n   * @notice Create a ControlledToken token\n   * @param _name The name of the token\n   * @param _symbol The symbol of the token\n   * @param _controller The address of the controller\n   */\n  constructor(\n    string memory _name,\n    string memory _symbol,\n    address _controller\n  ) Controller(_controller) ERC20(_name, _symbol) {}\n\n  /**\n   * @notice Allows the controller to mint `_amount` of tokens\n   * to the `_user` address\n   * @param _user The address to mint tokens to\n   * @param _amount The amount of tokens to mint\n   */\n  function controlledMint(address _user, uint256 _amount)\n    external\n    onlyController\n  {\n    _mint(_user, _amount);\n  }\n\n  /**\n   * @notice Allows the controller to burn `_amount` of tokens\n   * from the `_user` address\n   * @param _user The address to burn tokens from\n   * @param _amount The amount of tokens to burn\n   */\n  function controlledBurn(address _user, uint256 _amount)\n    external\n    onlyController\n  {\n    _burn(_user, _amount);\n  }\n}\n",
  "sourcePath": "/Users/niccolofant/dev/Solidity/pryze-protocol/pryze-core/contracts/token/ControlledToken.sol",
  "compiler": {
    "name": "solc",
    "version": "0.8.7+commit.e28d00a7.Emscripten.clang"
  },
  "schemaVersion": "3.4.3",
  "updatedAt": "2022-02-24T09:48:37.366Z",
  "devdoc": {
    "kind": "dev",
    "methods": {
      "allowance(address,address)": {
        "details": "See {IERC20-allowance}."
      },
      "approve(address,uint256)": {
        "details": "See {IERC20-approve}. NOTE: If `amount` is the maximum `uint256`, the allowance is not updated on `transferFrom`. This is semantically equivalent to an infinite approval. Requirements: - `spender` cannot be the zero address."
      },
      "balanceOf(address)": {
        "details": "See {IERC20-balanceOf}."
      },
      "constructor": {
        "params": {
          "_controller": "The address of the controller",
          "_name": "The name of the token",
          "_symbol": "The symbol of the token"
        }
      },
      "controlledBurn(address,uint256)": {
        "params": {
          "_amount": "The amount of tokens to burn",
          "_user": "The address to burn tokens from"
        }
      },
      "controlledMint(address,uint256)": {
        "params": {
          "_amount": "The amount of tokens to mint",
          "_user": "The address to mint tokens to"
        }
      },
      "decimals()": {
        "details": "Returns the number of decimals used to get its user representation. For example, if `decimals` equals `2`, a balance of `505` tokens should be displayed to a user as `5.05` (`505 / 10 ** 2`). Tokens usually opt for a value of 18, imitating the relationship between Ether and Wei. This is the value {ERC20} uses, unless this function is overridden; NOTE: This information is only used for _display_ purposes: it in no way affects any of the arithmetic of the contract, including {IERC20-balanceOf} and {IERC20-transfer}."
      },
      "decreaseAllowance(address,uint256)": {
        "details": "Atomically decreases the allowance granted to `spender` by the caller. This is an alternative to {approve} that can be used as a mitigation for problems described in {IERC20-approve}. Emits an {Approval} event indicating the updated allowance. Requirements: - `spender` cannot be the zero address. - `spender` must have allowance for the caller of at least `subtractedValue`."
      },
      "increaseAllowance(address,uint256)": {
        "details": "Atomically increases the allowance granted to `spender` by the caller. This is an alternative to {approve} that can be used as a mitigation for problems described in {IERC20-approve}. Emits an {Approval} event indicating the updated allowance. Requirements: - `spender` cannot be the zero address."
      },
      "name()": {
        "details": "Returns the name of the token."
      },
      "symbol()": {
        "details": "Returns the symbol of the token, usually a shorter version of the name."
      },
      "totalSupply()": {
        "details": "See {IERC20-totalSupply}."
      },
      "transfer(address,uint256)": {
        "details": "See {IERC20-transfer}. Requirements: - `to` cannot be the zero address. - the caller must have a balance of at least `amount`."
      },
      "transferFrom(address,address,uint256)": {
        "details": "See {IERC20-transferFrom}. Emits an {Approval} event indicating the updated allowance. This is not required by the EIP. See the note at the beginning of {ERC20}. NOTE: Does not update the allowance if the current allowance is the maximum `uint256`. Requirements: - `from` and `to` cannot be the zero address. - `from` must have a balance of at least `amount`. - the caller must have allowance for ``from``'s tokens of at least `amount`."
      }
    },
    "version": 1
  },
  "userdoc": {
    "kind": "user",
    "methods": {
      "constructor": {
        "notice": "Create a ControlledToken token"
      },
      "controlledBurn(address,uint256)": {
        "notice": "Allows the controller to burn `_amount` of tokens from the `_user` address"
      },
      "controlledMint(address,uint256)": {
        "notice": "Allows the controller to mint `_amount` of tokens to the `_user` address"
      }
    },
    "version": 1
  }
}