{
  "contractName": "Controller",
  "abi": [
    {
      "inputs": [
        {
          "internalType": "address",
          "name": "_currentController",
          "type": "address"
        }
      ],
      "stateMutability": "nonpayable",
      "type": "constructor"
    },
    {
      "anonymous": false,
      "inputs": [
        {
          "indexed": true,
          "internalType": "address",
          "name": "oldController",
          "type": "address"
        },
        {
          "indexed": true,
          "internalType": "address",
          "name": "newController",
          "type": "address"
        }
      ],
      "name": "ControllerRoleTransferred",
      "type": "event"
    },
    {
      "inputs": [],
      "name": "controller",
      "outputs": [
        {
          "internalType": "address",
          "name": "",
          "type": "address"
        }
      ],
      "stateMutability": "view",
      "type": "function"
    },
    {
      "inputs": [
        {
          "internalType": "address",
          "name": "_newController",
          "type": "address"
        }
      ],
      "name": "transferControllerRole",
      "outputs": [],
      "stateMutability": "nonpayable",
      "type": "function"
    }
  ],
  "bytecode": "0x608060405234801561001057600080fd5b506040516103c83803806103c883398101604081905261002f91610179565b6100388161003e565b506101a9565b336100516000546001600160a01b031690565b6001600160a01b0316146100b85760405162461bcd60e51b8152602060048201526024808201527f436f6e74726f6c6c65723a2043414c4c45525f49535f4e4f545f434f4e54524f604482015263262622a960e11b60648201526084015b60405180910390fd5b6001600160a01b03811661011d5760405162461bcd60e51b815260206004820152602660248201527f436f6e74726f6c6c65723a20434f4e54524f4c4c45525f49535f5a45524f5f4160448201526544445245535360d01b60648201526084016100af565b61012681610129565b50565b600080546001600160a01b038381166001600160a01b0319831681178455604051919092169283917fad78fb3403b687df144f8a6b1a4dc5452ab29ebc2b2e4dfce732c14be63b40eb9190a35050565b60006020828403121561018b57600080fd5b81516001600160a01b03811681146101a257600080fd5b9392505050565b610210806101b86000396000f3fe608060405234801561001057600080fd5b50600436106100365760003560e01c806387f06ed71461003b578063f77c479114610050575b600080fd5b61004e6100493660046101aa565b61006f565b005b600054604080516001600160a01b039092168252519081900360200190f35b336100826000546001600160a01b031690565b6001600160a01b0316146100e95760405162461bcd60e51b8152602060048201526024808201527f436f6e74726f6c6c65723a2043414c4c45525f49535f4e4f545f434f4e54524f604482015263262622a960e11b60648201526084015b60405180910390fd5b6001600160a01b03811661014e5760405162461bcd60e51b815260206004820152602660248201527f436f6e74726f6c6c65723a20434f4e54524f4c4c45525f49535f5a45524f5f4160448201526544445245535360d01b60648201526084016100e0565b6101578161015a565b50565b600080546001600160a01b038381166001600160a01b0319831681178455604051919092169283917fad78fb3403b687df144f8a6b1a4dc5452ab29ebc2b2e4dfce732c14be63b40eb9190a35050565b6000602082840312156101bc57600080fd5b81356001600160a01b03811681146101d357600080fd5b939250505056fea2646970667358221220124a58e01faeea45e874510186600b6ec242f67e076fcb5c5852d59f8fb9689464736f6c63430008070033",
  "immutableReferences": {},
  "source": "//SPDX-License-Identifier: MIT\n\npragma solidity ^0.8.0;\n\ncontract Controller {\n  event ControllerRoleTransferred(\n    address indexed oldController,\n    address indexed newController\n  );\n\n  address private _controller;\n\n  constructor(address _currentController) {\n    transferControllerRole(_currentController);\n  }\n\n  function controller() public view virtual returns (address) {\n    return _controller;\n  }\n\n  function transferControllerRole(address _newController)\n    public\n    virtual\n    onlyController\n  {\n    require(\n      _newController != address(0),\n      \"Controller: CONTROLLER_IS_ZERO_ADDRESS\"\n    );\n    _transferControllerRole(_newController);\n  }\n\n  function _transferControllerRole(address _newController) internal virtual {\n    address oldController = _controller;\n    _controller = _newController;\n\n    emit ControllerRoleTransferred(oldController, _newController);\n  }\n\n  modifier onlyController() {\n    require(controller() == msg.sender, \"Controller: CALLER_IS_NOT_CONTROLLER\");\n    _;\n  }\n}\n",
  "sourcePath": "/Users/niccolofant/dev/Solidity/pryze-protocol/pryze-core/contracts/utils/Controller.sol",
  "compiler": {
    "name": "solc",
    "version": "0.8.7+commit.e28d00a7.Emscripten.clang"
  },
  "schemaVersion": "3.4.3",
  "updatedAt": "2022-02-18T11:57:54.844Z",
  "devdoc": {
    "kind": "dev",
    "methods": {},
    "version": 1
  },
  "userdoc": {
    "kind": "user",
    "methods": {},
    "version": 1
  }
}