{
  "contractName": "PrizePool",
  "abi": [
    {
      "inputs": [],
      "stateMutability": "nonpayable",
      "type": "constructor"
    },
    {
      "inputs": [],
      "name": "NAME",
      "outputs": [
        {
          "internalType": "string",
          "name": "",
          "type": "string"
        }
      ],
      "stateMutability": "view",
      "type": "function"
    },
    {
      "inputs": [],
      "name": "claim",
      "outputs": [],
      "stateMutability": "nonpayable",
      "type": "function"
    }
  ],
  "bytecode": "0x608060405234801561001057600080fd5b50610102806100206000396000f3fe6080604052348015600f57600080fd5b506004361060325760003560e01c80634e71d92d146037578063a3f4df7e146039575b600080fd5b005b60666040518060400160405280600f81526020016e1554d110c8141c9a5e9948141bdbdb608a1b81525081565b60405160719190607a565b60405180910390f35b600060208083528351808285015260005b8181101560a557858101830151858201604001528201608b565b8181111560b6576000604083870101525b50601f01601f191692909201604001939250505056fea2646970667358221220041f1408fd6178aa1bf1ebf9f5e55ff5b974f65a7e66b261a7731d3d6a27211e64736f6c63430008070033",
  "immutableReferences": {},
  "source": "//SPDX-License-Identifier: MIT\npragma solidity ^0.8.0;\n\nimport \"./Compound/CYieldSource.sol\";\nimport \"./Token/Ticket.sol\";\n\ncontract PrizePool is CYieldSource {\n  string public constant NAME = \"USDC Prize Pool\";\n\n  constructor() {}\n\n  function claim() external {}\n}\n",
  "sourcePath": "/Users/niccolofant/dev/Solidity/pryze-protocol/pryze-core/contracts/PrizePool.sol",
  "compiler": {
    "name": "solc",
    "version": "0.8.7+commit.e28d00a7.Emscripten.clang"
  },
  "schemaVersion": "3.4.3",
  "updatedAt": "2022-02-16T14:38:41.966Z",
  "devdoc": {
    "kind": "dev",
    "methods": {},
    "version": 1
  },
  "userdoc": {
    "kind": "user",
    "methods": {},
    "version": 1
  }
}