{
  "contractName": "RNGCalculator",
  "abi": [
    {
      "inputs": [
        {
          "internalType": "address",
          "name": "_vrfCoordinator",
          "type": "address"
        },
        {
          "internalType": "address",
          "name": "_linkTokenAddress",
          "type": "address"
        },
        {
          "internalType": "bytes32",
          "name": "_keyHash",
          "type": "bytes32"
        }
      ],
      "stateMutability": "nonpayable",
      "type": "constructor"
    },
    {
      "inputs": [
        {
          "internalType": "address",
          "name": "have",
          "type": "address"
        },
        {
          "internalType": "address",
          "name": "want",
          "type": "address"
        }
      ],
      "name": "OnlyCoordinatorCanFulfill",
      "type": "error"
    },
    {
      "anonymous": false,
      "inputs": [
        {
          "indexed": true,
          "internalType": "address",
          "name": "previousOwner",
          "type": "address"
        },
        {
          "indexed": true,
          "internalType": "address",
          "name": "newOwner",
          "type": "address"
        }
      ],
      "name": "OwnershipTransferred",
      "type": "event"
    },
    {
      "inputs": [],
      "name": "owner",
      "outputs": [
        {
          "internalType": "address",
          "name": "",
          "type": "address"
        }
      ],
      "stateMutability": "view",
      "type": "function"
    },
    {
      "inputs": [
        {
          "internalType": "uint256",
          "name": "",
          "type": "uint256"
        }
      ],
      "name": "randomWord",
      "outputs": [
        {
          "internalType": "uint256",
          "name": "",
          "type": "uint256"
        }
      ],
      "stateMutability": "view",
      "type": "function"
    },
    {
      "inputs": [
        {
          "internalType": "uint256",
          "name": "requestId",
          "type": "uint256"
        },
        {
          "internalType": "uint256[]",
          "name": "randomWords",
          "type": "uint256[]"
        }
      ],
      "name": "rawFulfillRandomWords",
      "outputs": [],
      "stateMutability": "nonpayable",
      "type": "function"
    },
    {
      "inputs": [],
      "name": "renounceOwnership",
      "outputs": [],
      "stateMutability": "nonpayable",
      "type": "function"
    },
    {
      "inputs": [],
      "name": "requestId",
      "outputs": [
        {
          "internalType": "uint256",
          "name": "",
          "type": "uint256"
        }
      ],
      "stateMutability": "view",
      "type": "function"
    },
    {
      "inputs": [],
      "name": "subscriptionId",
      "outputs": [
        {
          "internalType": "uint64",
          "name": "",
          "type": "uint64"
        }
      ],
      "stateMutability": "view",
      "type": "function"
    },
    {
      "inputs": [
        {
          "internalType": "address",
          "name": "newOwner",
          "type": "address"
        }
      ],
      "name": "transferOwnership",
      "outputs": [],
      "stateMutability": "nonpayable",
      "type": "function"
    },
    {
      "inputs": [],
      "name": "requestRandomWords",
      "outputs": [],
      "stateMutability": "nonpayable",
      "type": "function"
    },
    {
      "inputs": [
        {
          "internalType": "uint256",
          "name": "_amount",
          "type": "uint256"
        }
      ],
      "name": "topUpSubscription",
      "outputs": [],
      "stateMutability": "nonpayable",
      "type": "function"
    },
    {
      "inputs": [
        {
          "internalType": "address",
          "name": "_consumerAddress",
          "type": "address"
        }
      ],
      "name": "addConsumer",
      "outputs": [],
      "stateMutability": "nonpayable",
      "type": "function"
    },
    {
      "inputs": [
        {
          "internalType": "address",
          "name": "_consumerAddress",
          "type": "address"
        }
      ],
      "name": "removeConsumer",
      "outputs": [],
      "stateMutability": "nonpayable",
      "type": "function"
    },
    {
      "inputs": [
        {
          "internalType": "address",
          "name": "_receivingWallet",
          "type": "address"
        }
      ],
      "name": "cancelSubscription",
      "outputs": [],
      "stateMutability": "nonpayable",
      "type": "function"
    },
    {
      "inputs": [
        {
          "internalType": "address",
          "name": "_to",
          "type": "address"
        },
        {
          "internalType": "uint256",
          "name": "_amount",
          "type": "uint256"
        }
      ],
      "name": "withdraw",
      "outputs": [],
      "stateMutability": "nonpayable",
      "type": "function"
    }
  ],
  "bytecode": "0x60a06040526006805465ffffffffffff19166403000186a01790553480156200002757600080fd5b5060405162000eb038038062000eb08339810160408190526200004a9162000320565b606083901b6001600160601b0319166080526200006733620000c5565b600380546001600160a01b038086166001600160a01b0319928316811790935560048054918616918316821790556005849055600180548316909317909255600280549091169091179055620000bc62000115565b505050620003a9565b600080546001600160a01b038381166001600160a01b0319831681178455604051919092169283917f8be0079c531659141344cd1fd0a4f28419497f9722a3daafe3b4186f6b6457e09190a35050565b6000546001600160a01b03163314620001745760405162461bcd60e51b815260206004820181905260248201527f4f776e61626c653a2063616c6c6572206973206e6f7420746865206f776e6572604482015260640160405180910390fd5b604080516001808252818301909252600091602080830190803683370190505090503081600081518110620001ad57620001ad62000393565b6001600160a01b039283166020918202929092018101919091526001546040805163288688f960e21b81529051919093169263a21a23e49260048083019391928290030181600087803b1580156200020457600080fd5b505af115801562000219573d6000803e3d6000fd5b505050506040513d601f19601f820116820180604052508101906200023f919062000361565b600980546001600160401b0319166001600160401b0392909216918217905560015482516001600160a01b0390911691637341c10c91849060009062000289576200028962000393565b60200260200101516040518363ffffffff1660e01b8152600401620002cc9291906001600160401b039290921682526001600160a01b0316602082015260400190565b600060405180830381600087803b158015620002e757600080fd5b505af1158015620002fc573d6000803e3d6000fd5b5050505050565b80516001600160a01b03811681146200031b57600080fd5b919050565b6000806000606084860312156200033657600080fd5b620003418462000303565b9250620003516020850162000303565b9150604084015190509250925092565b6000602082840312156200037457600080fd5b81516001600160401b03811681146200038c57600080fd5b9392505050565b634e487b7160e01b600052603260045260246000fd5b60805160601c610ae1620003cf6000396000818161030601526103480152610ae16000f3fe608060405234801561001057600080fd5b50600436106100ce5760003560e01c806386850e931161008c578063d64ddd8911610066578063d64ddd89146101a0578063e0c86289146101b3578063f2fde38b146101bb578063f3fef3a3146101ce57600080fd5b806386850e931461015f5780638da5cb5b1461017257806393d81d581461018d57600080fd5b80626d6cae146100d357806309c1ba2e146100ef5780630e27e3df1461011c578063112940f9146101315780631fe543e314610144578063715018a614610157575b600080fd5b6100dc60085481565b6040519081526020015b60405180910390f35b6009546101039067ffffffffffffffff1681565b60405167ffffffffffffffff90911681526020016100e6565b61012f61012a366004610883565b6101e1565b005b61012f61013f366004610883565b61028b565b61012f610152366004610923565b6102fb565b61012f610383565b61012f61016d3660046108f1565b6103b9565b6000546040516001600160a01b0390911681526020016100e6565b61012f61019b366004610883565b610497565b6100dc6101ae3660046108f1565b610548565b61012f610569565b61012f6101c9366004610883565b610654565b61012f6101dc3660046108a5565b6106ef565b6000546001600160a01b031633146102145760405162461bcd60e51b815260040161020b90610a60565b60405180910390fd5b600154600954604051639f87fad760e01b815267ffffffffffffffff90911660048201526001600160a01b03838116602483015290911690639f87fad7906044015b600060405180830381600087803b15801561027057600080fd5b505af1158015610284573d6000803e3d6000fd5b5050505050565b6000546001600160a01b031633146102b55760405162461bcd60e51b815260040161020b90610a60565b600154600954604051631cd0704360e21b815267ffffffffffffffff90911660048201526001600160a01b03838116602483015290911690637341c10c90604401610256565b336001600160a01b037f000000000000000000000000000000000000000000000000000000000000000016146103755760405163073e64fd60e21b81523360048201526001600160a01b037f000000000000000000000000000000000000000000000000000000000000000016602482015260440161020b565b61037f82826107a4565b5050565b6000546001600160a01b031633146103ad5760405162461bcd60e51b815260040161020b90610a60565b6103b760006107b7565b565b6000546001600160a01b031633146103e35760405162461bcd60e51b815260040161020b90610a60565b6002546001546009546040805167ffffffffffffffff90921660208301526001600160a01b0393841693634000aea09316918591016040516020818303038152906040526040518463ffffffff1660e01b8152600401610445939291906109f4565b602060405180830381600087803b15801561045f57600080fd5b505af1158015610473573d6000803e3d6000fd5b505050506040513d601f19601f8201168201806040525081019061037f91906108cf565b6000546001600160a01b031633146104c15760405162461bcd60e51b815260040161020b90610a60565b600154600954604051630d7ae1d360e41b815267ffffffffffffffff90911660048201526001600160a01b0383811660248301529091169063d7ae1d3090604401600060405180830381600087803b15801561051c57600080fd5b505af1158015610530573d6000803e3d6000fd5b50506009805467ffffffffffffffff19169055505050565b6007818154811061055857600080fd5b600091825260209091200154905081565b6000546001600160a01b031633146105935760405162461bcd60e51b815260040161020b90610a60565b600180546005546009546006546040516305d3b1d360e41b8152600481019390935267ffffffffffffffff9091166024830152640100000000810461ffff16604483015263ffffffff16606482015260848101929092526001600160a01b031690635d3b1d309060a401602060405180830381600087803b15801561061757600080fd5b505af115801561062b573d6000803e3d6000fd5b505050506040513d601f19601f8201168201806040525081019061064f919061090a565b600855565b6000546001600160a01b0316331461067e5760405162461bcd60e51b815260040161020b90610a60565b6001600160a01b0381166106e35760405162461bcd60e51b815260206004820152602660248201527f4f776e61626c653a206e6577206f776e657220697320746865207a65726f206160448201526564647265737360d01b606482015260840161020b565b6106ec816107b7565b50565b6000546001600160a01b031633146107195760405162461bcd60e51b815260040161020b90610a60565b60025460405163a9059cbb60e01b81526001600160a01b038481166004830152602482018490529091169063a9059cbb90604401602060405180830381600087803b15801561076757600080fd5b505af115801561077b573d6000803e3d6000fd5b505050506040513d601f19601f8201168201806040525081019061079f91906108cf565b505050565b805161079f906007906020840190610807565b600080546001600160a01b038381166001600160a01b0319831681178455604051919092169283917f8be0079c531659141344cd1fd0a4f28419497f9722a3daafe3b4186f6b6457e09190a35050565b828054828255906000526020600020908101928215610842579160200282015b82811115610842578251825591602001919060010190610827565b5061084e929150610852565b5090565b5b8082111561084e5760008155600101610853565b80356001600160a01b038116811461087e57600080fd5b919050565b60006020828403121561089557600080fd5b61089e82610867565b9392505050565b600080604083850312156108b857600080fd5b6108c183610867565b946020939093013593505050565b6000602082840312156108e157600080fd5b8151801515811461089e57600080fd5b60006020828403121561090357600080fd5b5035919050565b60006020828403121561091c57600080fd5b5051919050565b6000806040838503121561093657600080fd5b8235915060208084013567ffffffffffffffff8082111561095657600080fd5b818601915086601f83011261096a57600080fd5b81358181111561097c5761097c610a95565b8060051b604051601f19603f830116810181811085821117156109a1576109a1610a95565b604052828152858101935084860182860187018b10156109c057600080fd5b600095505b838610156109e35780358552600195909501949386019386016109c5565b508096505050505050509250929050565b60018060a01b038416815260006020848184015260606040840152835180606085015260005b81811015610a3657858101830151858201608001528201610a1a565b81811115610a48576000608083870101525b50601f01601f19169290920160800195945050505050565b6020808252818101527f4f776e61626c653a2063616c6c6572206973206e6f7420746865206f776e6572604082015260600190565b634e487b7160e01b600052604160045260246000fdfea2646970667358221220d61dc9b49df6c0a006d5f80cbe041184bba85a933fd0addd5a42e1ea757478c364736f6c63430008070033",
  "immutableReferences": {
    "10": [
      {
        "length": 32,
        "start": 774
      },
      {
        "length": 32,
        "start": 840
      }
    ]
  },
  "source": "//SPDX-License-Identifier: MIT\n\npragma solidity ^0.8.0;\n\nimport \"@chainlink/contracts/src/v0.8/interfaces/LinkTokenInterface.sol\";\nimport \"@chainlink/contracts/src/v0.8/interfaces/VRFCoordinatorV2Interface.sol\";\nimport \"@chainlink/contracts/src/v0.8/VRFConsumerBaseV2.sol\";\nimport \"@openzeppelin/contracts/access/Ownable.sol\";\n\ncontract RNGCalculator is VRFConsumerBaseV2, Ownable {\n  VRFCoordinatorV2Interface private COORDINATOR;\n  LinkTokenInterface private LINKTOKEN;\n\n  // VRF parameters\n  address private vrfCoordinator;\n  address private linkTokenAddress;\n  bytes32 private keyHash;\n  uint32 private callbackGasLimit = 100000;\n  uint16 private requestConfirmations = 3;\n\n  // Storage parameters\n  uint256[] public randomWord;\n  uint256 public requestId;\n  uint64 public subscriptionId;\n\n  constructor(\n    address _vrfCoordinator,\n    address _linkTokenAddress,\n    bytes32 _keyHash\n  ) VRFConsumerBaseV2(_vrfCoordinator) {\n    vrfCoordinator = _vrfCoordinator;\n    linkTokenAddress = _linkTokenAddress;\n    keyHash = _keyHash;\n    COORDINATOR = VRFCoordinatorV2Interface(vrfCoordinator);\n    LINKTOKEN = LinkTokenInterface(linkTokenAddress);\n    //Create a new subscription when you deploy the contract.\n    createNewSubscription();\n  }\n\n  // Create a new subscription when the contract is initially deployed.\n  function createNewSubscription() private onlyOwner {\n    // Create a subscription with a new subscription ID.\n    address[] memory consumers = new address[](1);\n    consumers[0] = address(this);\n    subscriptionId = COORDINATOR.createSubscription();\n    // Add this contract as a consumer of its own subscription.\n    COORDINATOR.addConsumer(subscriptionId, consumers[0]);\n  }\n\n  // Assumes the subscription is funded sufficiently.\n  function requestRandomWords() external onlyOwner {\n    // Will revert if subscription is not set and funded.\n    requestId = COORDINATOR.requestRandomWords(\n      keyHash,\n      subscriptionId,\n      requestConfirmations,\n      callbackGasLimit,\n      1\n    );\n  }\n\n  function fulfillRandomWords(\n    uint256,\n    /* requestId */\n    uint256[] memory _randomWord\n  ) internal override {\n    randomWord = _randomWord;\n  }\n\n  // ======================== Utility Functions ================================\n\n  /**\n   * @notice Tops up LINK balance of the contract\n   * @param _amount The amount of LINK to top up (1000000000000000000 = 1 LINK)\n   */\n  function topUpSubscription(uint256 _amount) external onlyOwner {\n    LINKTOKEN.transferAndCall(\n      address(COORDINATOR),\n      _amount,\n      abi.encode(subscriptionId)\n    );\n  }\n\n  /**\n   * @notice Adds a consumer contract to the subscription\n   * @param _consumerAddress The address of the consumer to add\n   */\n  function addConsumer(address _consumerAddress) external onlyOwner {\n    COORDINATOR.addConsumer(subscriptionId, _consumerAddress);\n  }\n\n  /**\n   * @notice Removes a consumer contract from the subscription\n   * @param _consumerAddress The address of the consumer to remove\n   */\n  function removeConsumer(address _consumerAddress) external onlyOwner {\n    COORDINATOR.removeConsumer(subscriptionId, _consumerAddress);\n  }\n\n  /**\n   * Cancels the subscription and send the remaining LINK to a wallet address\n   * @param _receivingWallet The address of the wallet that receives\n   * the remaining LINK\n   */\n  function cancelSubscription(address _receivingWallet) external onlyOwner {\n    COORDINATOR.cancelSubscription(subscriptionId, _receivingWallet);\n    subscriptionId = 0;\n  }\n\n  /**\n   * @notice Transfer this contract's LINK funds to an address.\n   * @param _to The address of the address to send LINK to\n   * @param _amount The amount of LINK to withdraw (1000000000000000000 = 1 LINK)\n   */\n  function withdraw(address _to, uint256 _amount) external onlyOwner {\n    LINKTOKEN.transfer(_to, _amount);\n  }\n}\n",
  "sourcePath": "/Users/niccolofant/dev/Solidity/pryze-protocol/pryze-core/contracts/RNGCalculator.sol",
  "compiler": {
    "name": "solc",
    "version": "0.8.7+commit.e28d00a7.Emscripten.clang"
  },
  "schemaVersion": "3.4.3",
  "updatedAt": "2022-02-17T10:10:08.122Z",
  "devdoc": {
    "kind": "dev",
    "methods": {
      "addConsumer(address)": {
        "params": {
          "_consumerAddress": "The address of the consumer to add"
        }
      },
      "cancelSubscription(address)": {
        "params": {
          "_receivingWallet": "The address of the wallet that receives the remaining LINK"
        }
      },
      "owner()": {
        "details": "Returns the address of the current owner."
      },
      "removeConsumer(address)": {
        "params": {
          "_consumerAddress": "The address of the consumer to remove"
        }
      },
      "renounceOwnership()": {
        "details": "Leaves the contract without owner. It will not be possible to call `onlyOwner` functions anymore. Can only be called by the current owner. NOTE: Renouncing ownership will leave the contract without an owner, thereby removing any functionality that is only available to the owner."
      },
      "topUpSubscription(uint256)": {
        "params": {
          "_amount": "The amount of LINK to top up (1000000000000000000 = 1 LINK)"
        }
      },
      "transferOwnership(address)": {
        "details": "Transfers ownership of the contract to a new account (`newOwner`). Can only be called by the current owner."
      },
      "withdraw(address,uint256)": {
        "params": {
          "_amount": "The amount of LINK to withdraw (1000000000000000000 = 1 LINK)",
          "_to": "The address of the address to send LINK to"
        }
      }
    },
    "version": 1
  },
  "userdoc": {
    "kind": "user",
    "methods": {
      "addConsumer(address)": {
        "notice": "Adds a consumer contract to the subscription"
      },
      "cancelSubscription(address)": {
        "notice": "Cancels the subscription and send the remaining LINK to a wallet address"
      },
      "removeConsumer(address)": {
        "notice": "Removes a consumer contract from the subscription"
      },
      "topUpSubscription(uint256)": {
        "notice": "Tops up LINK balance of the contract"
      },
      "withdraw(address,uint256)": {
        "notice": "Transfer this contract's LINK funds to an address."
      }
    },
    "version": 1
  }
}