{
  "contractName": "TicketMock",
  "abi": [
    {
      "inputs": [
        {
          "internalType": "string",
          "name": "_name",
          "type": "string"
        },
        {
          "internalType": "string",
          "name": "_symbol",
          "type": "string"
        },
        {
          "internalType": "address",
          "name": "_controller",
          "type": "address"
        }
      ],
      "stateMutability": "nonpayable",
      "type": "constructor"
    },
    {
      "anonymous": false,
      "inputs": [
        {
          "indexed": true,
          "internalType": "address",
          "name": "owner",
          "type": "address"
        },
        {
          "indexed": true,
          "internalType": "address",
          "name": "spender",
          "type": "address"
        },
        {
          "indexed": false,
          "internalType": "uint256",
          "name": "value",
          "type": "uint256"
        }
      ],
      "name": "Approval",
      "type": "event"
    },
    {
      "anonymous": false,
      "inputs": [
        {
          "indexed": true,
          "internalType": "address",
          "name": "from",
          "type": "address"
        },
        {
          "indexed": true,
          "internalType": "address",
          "name": "to",
          "type": "address"
        },
        {
          "indexed": false,
          "internalType": "uint256",
          "name": "value",
          "type": "uint256"
        }
      ],
      "name": "Transfer",
      "type": "event"
    },
    {
      "inputs": [
        {
          "internalType": "address",
          "name": "owner",
          "type": "address"
        },
        {
          "internalType": "address",
          "name": "spender",
          "type": "address"
        }
      ],
      "name": "allowance",
      "outputs": [
        {
          "internalType": "uint256",
          "name": "",
          "type": "uint256"
        }
      ],
      "stateMutability": "view",
      "type": "function"
    },
    {
      "inputs": [
        {
          "internalType": "address",
          "name": "spender",
          "type": "address"
        },
        {
          "internalType": "uint256",
          "name": "amount",
          "type": "uint256"
        }
      ],
      "name": "approve",
      "outputs": [
        {
          "internalType": "bool",
          "name": "",
          "type": "bool"
        }
      ],
      "stateMutability": "nonpayable",
      "type": "function"
    },
    {
      "inputs": [
        {
          "internalType": "address",
          "name": "account",
          "type": "address"
        }
      ],
      "name": "balanceOf",
      "outputs": [
        {
          "internalType": "uint256",
          "name": "",
          "type": "uint256"
        }
      ],
      "stateMutability": "view",
      "type": "function"
    },
    {
      "inputs": [
        {
          "internalType": "address",
          "name": "_user",
          "type": "address"
        },
        {
          "internalType": "uint256",
          "name": "_amount",
          "type": "uint256"
        }
      ],
      "name": "controlledBurn",
      "outputs": [],
      "stateMutability": "nonpayable",
      "type": "function"
    },
    {
      "inputs": [
        {
          "internalType": "address",
          "name": "_user",
          "type": "address"
        },
        {
          "internalType": "uint256",
          "name": "_amount",
          "type": "uint256"
        }
      ],
      "name": "controlledMint",
      "outputs": [],
      "stateMutability": "nonpayable",
      "type": "function"
    },
    {
      "inputs": [],
      "name": "controller",
      "outputs": [
        {
          "internalType": "address",
          "name": "",
          "type": "address"
        }
      ],
      "stateMutability": "view",
      "type": "function"
    },
    {
      "inputs": [],
      "name": "decimals",
      "outputs": [
        {
          "internalType": "uint8",
          "name": "",
          "type": "uint8"
        }
      ],
      "stateMutability": "view",
      "type": "function"
    },
    {
      "inputs": [
        {
          "internalType": "address",
          "name": "spender",
          "type": "address"
        },
        {
          "internalType": "uint256",
          "name": "subtractedValue",
          "type": "uint256"
        }
      ],
      "name": "decreaseAllowance",
      "outputs": [
        {
          "internalType": "bool",
          "name": "",
          "type": "bool"
        }
      ],
      "stateMutability": "nonpayable",
      "type": "function"
    },
    {
      "inputs": [
        {
          "internalType": "address",
          "name": "spender",
          "type": "address"
        },
        {
          "internalType": "uint256",
          "name": "addedValue",
          "type": "uint256"
        }
      ],
      "name": "increaseAllowance",
      "outputs": [
        {
          "internalType": "bool",
          "name": "",
          "type": "bool"
        }
      ],
      "stateMutability": "nonpayable",
      "type": "function"
    },
    {
      "inputs": [],
      "name": "name",
      "outputs": [
        {
          "internalType": "string",
          "name": "",
          "type": "string"
        }
      ],
      "stateMutability": "view",
      "type": "function"
    },
    {
      "inputs": [],
      "name": "symbol",
      "outputs": [
        {
          "internalType": "string",
          "name": "",
          "type": "string"
        }
      ],
      "stateMutability": "view",
      "type": "function"
    },
    {
      "inputs": [],
      "name": "totalSupply",
      "outputs": [
        {
          "internalType": "uint256",
          "name": "",
          "type": "uint256"
        }
      ],
      "stateMutability": "view",
      "type": "function"
    },
    {
      "inputs": [
        {
          "internalType": "address",
          "name": "to",
          "type": "address"
        },
        {
          "internalType": "uint256",
          "name": "amount",
          "type": "uint256"
        }
      ],
      "name": "transfer",
      "outputs": [
        {
          "internalType": "bool",
          "name": "",
          "type": "bool"
        }
      ],
      "stateMutability": "nonpayable",
      "type": "function"
    },
    {
      "inputs": [
        {
          "internalType": "address",
          "name": "from",
          "type": "address"
        },
        {
          "internalType": "address",
          "name": "to",
          "type": "address"
        },
        {
          "internalType": "uint256",
          "name": "amount",
          "type": "uint256"
        }
      ],
      "name": "transferFrom",
      "outputs": [
        {
          "internalType": "bool",
          "name": "",
          "type": "bool"
        }
      ],
      "stateMutability": "nonpayable",
      "type": "function"
    },
    {
      "inputs": [
        {
          "internalType": "address",
          "name": "_user",
          "type": "address"
        }
      ],
      "name": "chanceOf",
      "outputs": [
        {
          "internalType": "uint256",
          "name": "",
          "type": "uint256"
        }
      ],
      "stateMutability": "view",
      "type": "function"
    },
    {
      "inputs": [
        {
          "internalType": "uint256",
          "name": "_randomNumber",
          "type": "uint256"
        }
      ],
      "name": "draw",
      "outputs": [
        {
          "internalType": "address",
          "name": "",
          "type": "address"
        }
      ],
      "stateMutability": "view",
      "type": "function"
    }
  ],
  "bytecode": "0x60806040523480156200001157600080fd5b5060405162001a7638038062001a768339810160408190526200003491620003d4565b82828282828160039080519060200190620000519291906200023a565b508051620000679060049060208401906200023a565b5050600580546001600160a01b0319166001600160a01b0393841617905550831615159150620000e090505760405162461bcd60e51b815260206004820152601b60248201527f5469636b65743a20434f4e54524f4c4c45525f4e4f545f5a45524f000000000060448201526064015b60405180910390fd5b6200011e7f718b78f08f5fa7079154378b8cbc3a09cef2cca985ccd7c8d75cd8f7c6ac5685600560066200012760201b6200058f179092919060201c565b505050620004b4565b6000828152602084905260409020805415620001865760405162461bcd60e51b815260206004820152601460248201527f5472656520616c7265616479206578697374732e0000000000000000000000006044820152606401620000d7565b60018211620001d85760405162461bcd60e51b815260206004820152601b60248201527f4b206d7573742062652067726561746572207468616e206f6e652e00000000006044820152606401620000d7565b8181556040805160008152602081019182905251620001fc916001840191620002c9565b5060408051600081526020810191829052516200021e916002840191620002c9565b5060020180546001810182556000918252602082200155505050565b828054620002489062000461565b90600052602060002090601f0160209004810192826200026c5760008555620002b7565b82601f106200028757805160ff1916838001178555620002b7565b82800160010185558215620002b7579182015b82811115620002b75782518255916020019190600101906200029a565b50620002c592915062000306565b5090565b828054828255906000526020600020908101928215620002b75791602002820182811115620002b75782518255916020019190600101906200029a565b5b80821115620002c5576000815560010162000307565b600082601f8301126200032f57600080fd5b81516001600160401b03808211156200034c576200034c6200049e565b604051601f8301601f19908116603f011681019082821181831017156200037757620003776200049e565b816040528381526020925086838588010111156200039457600080fd5b600091505b83821015620003b8578582018301518183018401529082019062000399565b83821115620003ca5760008385830101525b9695505050505050565b600080600060608486031215620003ea57600080fd5b83516001600160401b03808211156200040257600080fd5b62000410878388016200031d565b945060208601519150808211156200042757600080fd5b5062000436868287016200031d565b604086015190935090506001600160a01b03811681146200045657600080fd5b809150509250925092565b600181811c908216806200047657607f821691505b602082108114156200049857634e487b7160e01b600052602260045260246000fd5b50919050565b634e487b7160e01b600052604160045260246000fd5b6115b280620004c46000396000f3fe608060405234801561001057600080fd5b50600436106101005760003560e01c80636e823b4711610097578063a457c2d711610066578063a457c2d714610224578063a9059cbb14610237578063dd62ed3e1461024a578063f77c47911461028357600080fd5b80636e823b47146101cd57806370a08231146101e0578063885d194d1461020957806395d89b411461021c57600080fd5b806323b872dd116100d357806323b872dd1461016d578063313ce56714610180578063395093511461018f5780633b304147146101a257600080fd5b806304a7137e1461010557806306fdde031461011a578063095ea7b31461013857806318160ddd1461015b575b600080fd5b6101186101133660046113a0565b610296565b005b610122610303565b60405161012f91906113e3565b60405180910390f35b61014b6101463660046113a0565b610395565b604051901515815260200161012f565b6002545b60405190815260200161012f565b61014b61017b366004611364565b6103ad565b6040516012815260200161012f565b61014b61019d3660046113a0565b6103d1565b6101b56101b03660046113ca565b610410565b6040516001600160a01b03909116815260200161012f565b6101186101db3660046113a0565b610451565b61015f6101ee366004611316565b6001600160a01b031660009081526020819052604090205490565b61015f610217366004611316565b6104b5565b6101226104e0565b61014b6102323660046113a0565b6104ef565b61014b6102453660046113a0565b610581565b61015f610258366004611331565b6001600160a01b03918216600090815260016020908152604080832093909416825291909152205490565b6005546101b5906001600160a01b031681565b6005546001600160a01b031633146102f55760405162461bcd60e51b815260206004820181905260248201527f436f6e74726f6c6c6564546f6b656e3a204f4e4c595f434f4e54524f4c4c455260448201526064015b60405180910390fd5b6102ff8282610691565b5050565b6060600380546103129061149a565b80601f016020809104026020016040519081016040528092919081815260200182805461033e9061149a565b801561038b5780601f106103605761010080835404028352916020019161038b565b820191906000526020600020905b81548152906001019060200180831161036e57829003601f168201915b5050505050905090565b6000336103a381858561077c565b5060019392505050565b6000336103bb8582856108a1565b6103c6858585610933565b506001949350505050565b3360008181526001602090815260408083206001600160a01b03871684529091528120549091906103a3908290869061040b908790611438565b61077c565b60008061041c60025490565b905060008161042d5750600061044a565b610447600660008051602061155d83398151915286610b0c565b90505b9392505050565b6005546001600160a01b031633146104ab5760405162461bcd60e51b815260206004820181905260248201527f436f6e74726f6c6c6564546f6b656e3a204f4e4c595f434f4e54524f4c4c455260448201526064016102ec565b6102ff8282610c12565b60006104da600660008051602061155d8339815191526001600160a01b038516610d69565b92915050565b6060600480546103129061149a565b3360008181526001602090815260408083206001600160a01b0387168452909152812054909190838110156105745760405162461bcd60e51b815260206004820152602560248201527f45524332303a2064656372656173656420616c6c6f77616e63652062656c6f77604482015264207a65726f60d81b60648201526084016102ec565b6103c6828686840361077c565b6000336103a3818585610933565b60008281526020849052604090208054156105e35760405162461bcd60e51b81526020600482015260146024820152732a3932b29030b63932b0b23c9032bc34b9ba399760611b60448201526064016102ec565b600182116106335760405162461bcd60e51b815260206004820152601b60248201527f4b206d7573742062652067726561746572207468616e206f6e652e000000000060448201526064016102ec565b818155604080516000815260208101918290525161065591600184019161129a565b50604080516000815260208101918290525161067591600284019161129a565b5060020180546001810182556000918252602082200155505050565b6001600160a01b0382166106e75760405162461bcd60e51b815260206004820152601f60248201527f45524332303a206d696e7420746f20746865207a65726f20616464726573730060448201526064016102ec565b6106f360008383610dbf565b80600260008282546107059190611438565b90915550506001600160a01b03821660009081526020819052604081208054839290610732908490611438565b90915550506040518181526001600160a01b038316906000907fddf252ad1be2c89b69c2b068fc378daa952ba7f163c4a11628f55a4df523b3ef9060200160405180910390a35050565b6001600160a01b0383166107de5760405162461bcd60e51b8152602060048201526024808201527f45524332303a20617070726f76652066726f6d20746865207a65726f206164646044820152637265737360e01b60648201526084016102ec565b6001600160a01b03821661083f5760405162461bcd60e51b815260206004820152602260248201527f45524332303a20617070726f766520746f20746865207a65726f206164647265604482015261737360f01b60648201526084016102ec565b6001600160a01b0383811660008181526001602090815260408083209487168084529482529182902085905590518481527f8c5be1e5ebec7d5bd14f71427d1e84f3dd0314c0f7b2291e5b200ac8c7c3b92591015b60405180910390a3505050565b6001600160a01b03838116600090815260016020908152604080832093861683529290522054600019811461092d57818110156109205760405162461bcd60e51b815260206004820152601d60248201527f45524332303a20696e73756666696369656e7420616c6c6f77616e636500000060448201526064016102ec565b61092d848484840361077c565b50505050565b6001600160a01b0383166109975760405162461bcd60e51b815260206004820152602560248201527f45524332303a207472616e736665722066726f6d20746865207a65726f206164604482015264647265737360d81b60648201526084016102ec565b6001600160a01b0382166109f95760405162461bcd60e51b815260206004820152602360248201527f45524332303a207472616e7366657220746f20746865207a65726f206164647260448201526265737360e81b60648201526084016102ec565b610a04838383610dbf565b6001600160a01b03831660009081526020819052604090205481811015610a7c5760405162461bcd60e51b815260206004820152602660248201527f45524332303a207472616e7366657220616d6f756e7420657863656564732062604482015265616c616e636560d01b60648201526084016102ec565b6001600160a01b03808516600090815260208190526040808220858503905591851681529081208054849290610ab3908490611438565b92505081905550826001600160a01b0316846001600160a01b03167fddf252ad1be2c89b69c2b068fc378daa952ba7f163c4a11628f55a4df523b3ef84604051610aff91815260200190565b60405180910390a361092d565b6000828152602084905260408120600281018054839182918290610b3257610b32611546565b906000526020600020015485610b4891906114f0565b90505b60028301548354610b5d908490611464565b610b68906001611438565b1015610bf75760015b83548111610bf157600081848660000154610b8c9190611464565b610b969190611438565b90506000856002018281548110610baf57610baf611546565b90600052602060002001549050808410610bd457610bcd8185611483565b9350610bdc565b509250610bf1565b50508080610be9906114d5565b915050610b71565b50610b4b565b50600090815260049091016020526040902054949350505050565b6001600160a01b038216610c725760405162461bcd60e51b815260206004820152602160248201527f45524332303a206275726e2066726f6d20746865207a65726f206164647265736044820152607360f81b60648201526084016102ec565b610c7e82600083610dbf565b6001600160a01b03821660009081526020819052604090205481811015610cf25760405162461bcd60e51b815260206004820152602260248201527f45524332303a206275726e20616d6f756e7420657863656564732062616c616e604482015261636560f01b60648201526084016102ec565b6001600160a01b0383166000908152602081905260408120838303905560028054849290610d21908490611483565b90915550506040518281526000906001600160a01b038516907fddf252ad1be2c89b69c2b068fc378daa952ba7f163c4a11628f55a4df523b3ef90602001610894565b505050565b6000828152602084815260408083208484526003810190925282205480610d935760009250610db6565b816002018181548110610da857610da8611546565b906000526020600020015492505b50509392505050565b816001600160a01b0316836001600160a01b03161415610dde57505050565b6001600160a01b03831615610e39576001600160a01b038316600090815260208190526040812054610e11908390611483565b9050610e37600660008051602061155d833981519152836001600160a01b038816610e8e565b505b6001600160a01b03821615610d64576001600160a01b038216600090815260208190526040812054610e6c908390611438565b905061092d600660008051602061155d833981519152836001600160a01b0387165b60008381526020858152604080832084845260038101909252909120548061105457831561104f576001820154610fa1575060028101805460018082018355600092835260209092208101859055908114801590610f0057508154610ef4600183611483565b610efe91906114f0565b155b15610f9c578154600090610f149083611450565b6000818152600485016020526040812054919250610f33846001611438565b905084600201856002018481548110610f4e57610f4e611546565b60009182526020808320909101548354600181018555938352818320909301929092559384526004860180825260408086208690558486526003880183528086208490559285529052909120555b61101c565b600180830180549091610fb391611483565b81548110610fc357610fc3611546565b9060005260206000200154905081600101805480610fe357610fe3611530565b600190038181906000526020600020016000905590558382600201828154811061100f5761100f611546565b6000918252602090912001555b6000838152600383016020908152604080832084905583835260048501909152902083905561104f8686836001886111dc565b6111d4565b836110f157600082600201828154811061107057611070611546565b90600052602060002001549050600083600201838154811061109457611094611546565b60009182526020808320909101929092556001808601805491820181558252828220018490558581526003850182526040808220829055848252600486019092529081208190556110eb90889088908590856111dc565b506111d4565b81600201818154811061110657611106611546565b906000526020600020015484146111d45760008483600201838154811061112f5761112f611546565b906000526020600020015411159050600081611175578584600201848154811061115b5761115b611546565b90600052602060002001546111709190611483565b6111a0565b83600201838154811061118a5761118a611546565b9060005260206000200154866111a09190611483565b9050858460020184815481106111b8576111b8611546565b6000918252602090912001556111d188888585856111dc565b50505b505050505050565b6000848152602086905260409020835b80156112915781546111ff600183611483565b6112099190611450565b905083611240578282600201828154811061122657611226611546565b906000526020600020015461123b9190611483565b61126b565b8282600201828154811061125657611256611546565b906000526020600020015461126b9190611438565b82600201828154811061128057611280611546565b6000918252602090912001556111ec565b50505050505050565b8280548282559060005260206000209081019282156112d5579160200282015b828111156112d55782518255916020019190600101906112ba565b506112e19291506112e5565b5090565b5b808211156112e157600081556001016112e6565b80356001600160a01b038116811461131157600080fd5b919050565b60006020828403121561132857600080fd5b61044a826112fa565b6000806040838503121561134457600080fd5b61134d836112fa565b915061135b602084016112fa565b90509250929050565b60008060006060848603121561137957600080fd5b611382846112fa565b9250611390602085016112fa565b9150604084013590509250925092565b600080604083850312156113b357600080fd5b6113bc836112fa565b946020939093013593505050565b6000602082840312156113dc57600080fd5b5035919050565b600060208083528351808285015260005b81811015611410578581018301518582016040015282016113f4565b81811115611422576000604083870101525b50601f01601f1916929092016040019392505050565b6000821982111561144b5761144b611504565b500190565b60008261145f5761145f61151a565b500490565b600081600019048311821515161561147e5761147e611504565b500290565b60008282101561149557611495611504565b500390565b600181811c908216806114ae57607f821691505b602082108114156114cf57634e487b7160e01b600052602260045260246000fd5b50919050565b60006000198214156114e9576114e9611504565b5060010190565b6000826114ff576114ff61151a565b500690565b634e487b7160e01b600052601160045260246000fd5b634e487b7160e01b600052601260045260246000fd5b634e487b7160e01b600052603160045260246000fd5b634e487b7160e01b600052603260045260246000fdfe718b78f08f5fa7079154378b8cbc3a09cef2cca985ccd7c8d75cd8f7c6ac5685a2646970667358221220a16b5e6c8c486d12e0bcc91aaa66ed22ab8c99f40b18c35316ea177b6a53bdac64736f6c63430008070033",
  "immutableReferences": {},
  "source": "//SPDX-License-Identifier: MIT\n\npragma solidity ^0.8.0;\n\nimport \"sortition-sum-tree-factory/contracts/SortitionSumTreeFactory.sol\";\nimport \"./ControlledTokenMock.sol\";\n\ncontract TicketMock is ControlledTokenMock {\n  using SortitionSumTreeFactory for SortitionSumTreeFactory.SortitionSumTrees;\n\n  bytes32 private constant TREE_KEY = keccak256(\"PryzeProtocol\");\n  uint256 private constant MAX_TREE_LEAVES = 5;\n\n  SortitionSumTreeFactory.SortitionSumTrees internal sortitionSumTrees;\n\n  constructor(\n    string memory _name,\n    string memory _symbol,\n    address _controller\n  ) ControlledTokenMock(_name, _symbol, _controller) {\n    require(_controller != address(0), \"Ticket: CONTROLLER_NOT_ZERO\");\n    sortitionSumTrees.createTree(TREE_KEY, MAX_TREE_LEAVES);\n  }\n\n  function chanceOf(address _user) external view returns (uint256) {\n    return\n      sortitionSumTrees.stakeOf(TREE_KEY, bytes32(uint256(uint160(_user))));\n  }\n\n  function draw(uint256 _randomNumber) external view returns (address) {\n    uint256 bound = totalSupply();\n    address selected;\n    if (bound == 0) {\n      selected = address(0);\n    } else {\n      selected = address(\n        uint160(uint256(sortitionSumTrees.draw(TREE_KEY, _randomNumber)))\n      );\n    }\n    return selected;\n  }\n\n  function _beforeTokenTransfer(\n    address from,\n    address to,\n    uint256 amount\n  ) internal virtual override {\n    super._beforeTokenTransfer(from, to, amount);\n\n    // optimize: ignore transfers to self\n    if (from == to) {\n      return;\n    }\n\n    if (from != address(0)) {\n      uint256 fromBalance = balanceOf(from) - amount;\n      sortitionSumTrees.set(\n        TREE_KEY,\n        fromBalance,\n        bytes32(uint256(uint160(from)))\n      );\n    }\n\n    if (to != address(0)) {\n      uint256 toBalance = balanceOf(to) + amount;\n      sortitionSumTrees.set(TREE_KEY, toBalance, bytes32(uint256(uint160(to))));\n    }\n  }\n}\n",
  "sourcePath": "/Users/niccolofant/dev/Solidity/pryze-protocol/pryze-core/contracts/Mocks/Token/TicketMock.sol",
  "compiler": {
    "name": "solc",
    "version": "0.8.7+commit.e28d00a7.Emscripten.clang"
  },
  "schemaVersion": "3.4.3",
  "updatedAt": "2022-02-16T14:39:28.616Z",
  "devdoc": {
    "kind": "dev",
    "methods": {
      "allowance(address,address)": {
        "details": "See {IERC20-allowance}."
      },
      "approve(address,uint256)": {
        "details": "See {IERC20-approve}. NOTE: If `amount` is the maximum `uint256`, the allowance is not updated on `transferFrom`. This is semantically equivalent to an infinite approval. Requirements: - `spender` cannot be the zero address."
      },
      "balanceOf(address)": {
        "details": "See {IERC20-balanceOf}."
      },
      "decimals()": {
        "details": "Returns the number of decimals used to get its user representation. For example, if `decimals` equals `2`, a balance of `505` tokens should be displayed to a user as `5.05` (`505 / 10 ** 2`). Tokens usually opt for a value of 18, imitating the relationship between Ether and Wei. This is the value {ERC20} uses, unless this function is overridden; NOTE: This information is only used for _display_ purposes: it in no way affects any of the arithmetic of the contract, including {IERC20-balanceOf} and {IERC20-transfer}."
      },
      "decreaseAllowance(address,uint256)": {
        "details": "Atomically decreases the allowance granted to `spender` by the caller. This is an alternative to {approve} that can be used as a mitigation for problems described in {IERC20-approve}. Emits an {Approval} event indicating the updated allowance. Requirements: - `spender` cannot be the zero address. - `spender` must have allowance for the caller of at least `subtractedValue`."
      },
      "increaseAllowance(address,uint256)": {
        "details": "Atomically increases the allowance granted to `spender` by the caller. This is an alternative to {approve} that can be used as a mitigation for problems described in {IERC20-approve}. Emits an {Approval} event indicating the updated allowance. Requirements: - `spender` cannot be the zero address."
      },
      "name()": {
        "details": "Returns the name of the token."
      },
      "symbol()": {
        "details": "Returns the symbol of the token, usually a shorter version of the name."
      },
      "totalSupply()": {
        "details": "See {IERC20-totalSupply}."
      },
      "transfer(address,uint256)": {
        "details": "See {IERC20-transfer}. Requirements: - `to` cannot be the zero address. - the caller must have a balance of at least `amount`."
      },
      "transferFrom(address,address,uint256)": {
        "details": "See {IERC20-transferFrom}. Emits an {Approval} event indicating the updated allowance. This is not required by the EIP. See the note at the beginning of {ERC20}. NOTE: Does not update the allowance if the current allowance is the maximum `uint256`. Requirements: - `from` and `to` cannot be the zero address. - `from` must have a balance of at least `amount`. - the caller must have allowance for ``from``'s tokens of at least `amount`."
      }
    },
    "version": 1
  },
  "userdoc": {
    "kind": "user",
    "methods": {},
    "version": 1
  }
}