{
  "contractName": "Ticket",
  "abi": [
    {
      "inputs": [
        {
          "internalType": "string",
          "name": "_name",
          "type": "string"
        },
        {
          "internalType": "string",
          "name": "_symbol",
          "type": "string"
        },
        {
          "internalType": "address",
          "name": "_controller",
          "type": "address"
        }
      ],
      "stateMutability": "nonpayable",
      "type": "constructor"
    },
    {
      "anonymous": false,
      "inputs": [
        {
          "indexed": true,
          "internalType": "address",
          "name": "owner",
          "type": "address"
        },
        {
          "indexed": true,
          "internalType": "address",
          "name": "spender",
          "type": "address"
        },
        {
          "indexed": false,
          "internalType": "uint256",
          "name": "value",
          "type": "uint256"
        }
      ],
      "name": "Approval",
      "type": "event"
    },
    {
      "anonymous": false,
      "inputs": [
        {
          "indexed": true,
          "internalType": "address",
          "name": "oldController",
          "type": "address"
        },
        {
          "indexed": true,
          "internalType": "address",
          "name": "newController",
          "type": "address"
        }
      ],
      "name": "ControllerRoleTransferred",
      "type": "event"
    },
    {
      "anonymous": false,
      "inputs": [
        {
          "indexed": true,
          "internalType": "address",
          "name": "from",
          "type": "address"
        },
        {
          "indexed": true,
          "internalType": "address",
          "name": "to",
          "type": "address"
        },
        {
          "indexed": false,
          "internalType": "uint256",
          "name": "value",
          "type": "uint256"
        }
      ],
      "name": "Transfer",
      "type": "event"
    },
    {
      "inputs": [
        {
          "internalType": "address",
          "name": "owner",
          "type": "address"
        },
        {
          "internalType": "address",
          "name": "spender",
          "type": "address"
        }
      ],
      "name": "allowance",
      "outputs": [
        {
          "internalType": "uint256",
          "name": "",
          "type": "uint256"
        }
      ],
      "stateMutability": "view",
      "type": "function"
    },
    {
      "inputs": [
        {
          "internalType": "address",
          "name": "spender",
          "type": "address"
        },
        {
          "internalType": "uint256",
          "name": "amount",
          "type": "uint256"
        }
      ],
      "name": "approve",
      "outputs": [
        {
          "internalType": "bool",
          "name": "",
          "type": "bool"
        }
      ],
      "stateMutability": "nonpayable",
      "type": "function"
    },
    {
      "inputs": [
        {
          "internalType": "address",
          "name": "account",
          "type": "address"
        }
      ],
      "name": "balanceOf",
      "outputs": [
        {
          "internalType": "uint256",
          "name": "",
          "type": "uint256"
        }
      ],
      "stateMutability": "view",
      "type": "function"
    },
    {
      "inputs": [
        {
          "internalType": "address",
          "name": "_user",
          "type": "address"
        },
        {
          "internalType": "uint256",
          "name": "_amount",
          "type": "uint256"
        }
      ],
      "name": "controlledBurn",
      "outputs": [],
      "stateMutability": "nonpayable",
      "type": "function"
    },
    {
      "inputs": [
        {
          "internalType": "address",
          "name": "_user",
          "type": "address"
        },
        {
          "internalType": "uint256",
          "name": "_amount",
          "type": "uint256"
        }
      ],
      "name": "controlledMint",
      "outputs": [],
      "stateMutability": "nonpayable",
      "type": "function"
    },
    {
      "inputs": [],
      "name": "controller",
      "outputs": [
        {
          "internalType": "address",
          "name": "",
          "type": "address"
        }
      ],
      "stateMutability": "view",
      "type": "function"
    },
    {
      "inputs": [],
      "name": "decimals",
      "outputs": [
        {
          "internalType": "uint8",
          "name": "",
          "type": "uint8"
        }
      ],
      "stateMutability": "view",
      "type": "function"
    },
    {
      "inputs": [
        {
          "internalType": "address",
          "name": "spender",
          "type": "address"
        },
        {
          "internalType": "uint256",
          "name": "subtractedValue",
          "type": "uint256"
        }
      ],
      "name": "decreaseAllowance",
      "outputs": [
        {
          "internalType": "bool",
          "name": "",
          "type": "bool"
        }
      ],
      "stateMutability": "nonpayable",
      "type": "function"
    },
    {
      "inputs": [
        {
          "internalType": "address",
          "name": "spender",
          "type": "address"
        },
        {
          "internalType": "uint256",
          "name": "addedValue",
          "type": "uint256"
        }
      ],
      "name": "increaseAllowance",
      "outputs": [
        {
          "internalType": "bool",
          "name": "",
          "type": "bool"
        }
      ],
      "stateMutability": "nonpayable",
      "type": "function"
    },
    {
      "inputs": [],
      "name": "name",
      "outputs": [
        {
          "internalType": "string",
          "name": "",
          "type": "string"
        }
      ],
      "stateMutability": "view",
      "type": "function"
    },
    {
      "inputs": [],
      "name": "symbol",
      "outputs": [
        {
          "internalType": "string",
          "name": "",
          "type": "string"
        }
      ],
      "stateMutability": "view",
      "type": "function"
    },
    {
      "inputs": [],
      "name": "totalSupply",
      "outputs": [
        {
          "internalType": "uint256",
          "name": "",
          "type": "uint256"
        }
      ],
      "stateMutability": "view",
      "type": "function"
    },
    {
      "inputs": [
        {
          "internalType": "address",
          "name": "to",
          "type": "address"
        },
        {
          "internalType": "uint256",
          "name": "amount",
          "type": "uint256"
        }
      ],
      "name": "transfer",
      "outputs": [
        {
          "internalType": "bool",
          "name": "",
          "type": "bool"
        }
      ],
      "stateMutability": "nonpayable",
      "type": "function"
    },
    {
      "inputs": [
        {
          "internalType": "address",
          "name": "_newController",
          "type": "address"
        }
      ],
      "name": "transferControllerRole",
      "outputs": [],
      "stateMutability": "nonpayable",
      "type": "function"
    },
    {
      "inputs": [
        {
          "internalType": "address",
          "name": "from",
          "type": "address"
        },
        {
          "internalType": "address",
          "name": "to",
          "type": "address"
        },
        {
          "internalType": "uint256",
          "name": "amount",
          "type": "uint256"
        }
      ],
      "name": "transferFrom",
      "outputs": [
        {
          "internalType": "bool",
          "name": "",
          "type": "bool"
        }
      ],
      "stateMutability": "nonpayable",
      "type": "function"
    },
    {
      "inputs": [
        {
          "internalType": "address",
          "name": "_user",
          "type": "address"
        }
      ],
      "name": "stakeOf",
      "outputs": [
        {
          "internalType": "uint256",
          "name": "",
          "type": "uint256"
        }
      ],
      "stateMutability": "view",
      "type": "function"
    },
    {
      "inputs": [
        {
          "internalType": "uint256",
          "name": "_number",
          "type": "uint256"
        }
      ],
      "name": "draw",
      "outputs": [
        {
          "internalType": "address",
          "name": "",
          "type": "address"
        }
      ],
      "stateMutability": "view",
      "type": "function"
    }
  ],
  "bytecode": "0x60806040523480156200001157600080fd5b5060405162001bd838038062001bd883398101604081905262000034916200041a565b82828282828262000045816200011d565b5081516200005b90600490602085019062000280565b5080516200007190600590602084019062000280565b50505050506001600160a01b03821615159050620000d65760405162461bcd60e51b815260206004820152601b60248201527f5469636b65743a20434f4e54524f4c4c45525f4e4f545f5a45524f000000000060448201526064015b60405180910390fd5b620001147f718b78f08f5fa7079154378b8cbc3a09cef2cca985ccd7c8d75cd8f7c6ac5685600560066200016d60201b62000617179092919060201c565b505050620004fa565b600080546001600160a01b038381166001600160a01b0319831681178455604051919092169283917fad78fb3403b687df144f8a6b1a4dc5452ab29ebc2b2e4dfce732c14be63b40eb9190a35050565b6000828152602084905260409020805415620001cc5760405162461bcd60e51b815260206004820152601460248201527f5472656520616c7265616479206578697374732e0000000000000000000000006044820152606401620000cd565b600182116200021e5760405162461bcd60e51b815260206004820152601b60248201527f4b206d7573742062652067726561746572207468616e206f6e652e00000000006044820152606401620000cd565b8181556040805160008152602081019182905251620002429160018401916200030f565b506040805160008152602081019182905251620002649160028401916200030f565b5060020180546001810182556000918252602082200155505050565b8280546200028e90620004a7565b90600052602060002090601f016020900481019282620002b25760008555620002fd565b82601f10620002cd57805160ff1916838001178555620002fd565b82800160010185558215620002fd579182015b82811115620002fd578251825591602001919060010190620002e0565b506200030b9291506200034c565b5090565b828054828255906000526020600020908101928215620002fd5791602002820182811115620002fd578251825591602001919060010190620002e0565b5b808211156200030b57600081556001016200034d565b600082601f8301126200037557600080fd5b81516001600160401b0380821115620003925762000392620004e4565b604051601f8301601f19908116603f01168101908282118183101715620003bd57620003bd620004e4565b81604052838152602092508683858801011115620003da57600080fd5b600091505b83821015620003fe5785820183015181830184015290820190620003df565b83821115620004105760008385830101525b9695505050505050565b6000806000606084860312156200043057600080fd5b83516001600160401b03808211156200044857600080fd5b620004568783880162000363565b945060208601519150808211156200046d57600080fd5b506200047c8682870162000363565b604086015190935090506001600160a01b03811681146200049c57600080fd5b809150509250925092565b600181811c90821680620004bc57607f821691505b60208210811415620004de57634e487b7160e01b600052602260045260246000fd5b50919050565b634e487b7160e01b600052604160045260246000fd5b6116ce806200050a6000396000f3fe608060405234801561001057600080fd5b506004361061010b5760003560e01c806342623360116100a257806395d89b411161007157806395d89b411461023a578063a457c2d714610242578063a9059cbb14610255578063dd62ed3e14610268578063f77c4791146102a157600080fd5b806342623360146101d85780636e823b47146101eb57806370a08231146101fe57806387f06ed71461022757600080fd5b806323b872dd116100de57806323b872dd14610178578063313ce5671461018b578063395093511461019a5780633b304147146101ad57600080fd5b806304a7137e1461011057806306fdde0314610125578063095ea7b31461014357806318160ddd14610166575b600080fd5b61012361011e366004611478565b6102b2565b005b61012d610302565b60405161013a91906114bb565b60405180910390f35b610156610151366004611478565b610394565b604051901515815260200161013a565b6003545b60405190815260200161013a565b61015661018636600461143c565b6103ac565b6040516012815260200161013a565b6101566101a8366004611478565b6103d0565b6101c06101bb3660046114a2565b61040f565b6040516001600160a01b03909116815260200161013a565b61016a6101e63660046113ee565b610450565b6101236101f9366004611478565b61047b565b61016a61020c3660046113ee565b6001600160a01b031660009081526001602052604090205490565b6101236102353660046113ee565b6104be565b61012d610568565b610156610250366004611478565b610577565b610156610263366004611478565b610609565b61016a610276366004611409565b6001600160a01b03918216600090815260026020908152604080832093909416825291909152205490565b6000546001600160a01b03166101c0565b336102c56000546001600160a01b031690565b6001600160a01b0316146102f45760405162461bcd60e51b81526004016102eb90611510565b60405180910390fd5b6102fe8282610719565b5050565b606060048054610311906115b6565b80601f016020809104026020016040519081016040528092919081815260200182805461033d906115b6565b801561038a5780601f1061035f5761010080835404028352916020019161038a565b820191906000526020600020905b81548152906001019060200180831161036d57829003601f168201915b5050505050905090565b6000336103a2818585610804565b5060019392505050565b6000336103ba858285610929565b6103c58585856109bb565b506001949350505050565b3360008181526002602090815260408083206001600160a01b03871684529091528120549091906103a2908290869061040a908790611554565b610804565b60008061041b60035490565b905060008161042c57506000610449565b610446600660008051602061167983398151915286610b94565b90505b9392505050565b600061047560066000805160206116798339815191526001600160a01b038516610c9a565b92915050565b3361048e6000546001600160a01b031690565b6001600160a01b0316146104b45760405162461bcd60e51b81526004016102eb90611510565b6102fe8282610cf0565b336104d16000546001600160a01b031690565b6001600160a01b0316146104f75760405162461bcd60e51b81526004016102eb90611510565b6001600160a01b03811661055c5760405162461bcd60e51b815260206004820152602660248201527f436f6e74726f6c6c65723a20434f4e54524f4c4c45525f49535f5a45524f5f4160448201526544445245535360d01b60648201526084016102eb565b61056581610e47565b50565b606060058054610311906115b6565b3360008181526002602090815260408083206001600160a01b0387168452909152812054909190838110156105fc5760405162461bcd60e51b815260206004820152602560248201527f45524332303a2064656372656173656420616c6c6f77616e63652062656c6f77604482015264207a65726f60d81b60648201526084016102eb565b6103c58286868403610804565b6000336103a28185856109bb565b600082815260208490526040902080541561066b5760405162461bcd60e51b81526020600482015260146024820152732a3932b29030b63932b0b23c9032bc34b9ba399760611b60448201526064016102eb565b600182116106bb5760405162461bcd60e51b815260206004820152601b60248201527f4b206d7573742062652067726561746572207468616e206f6e652e000000000060448201526064016102eb565b81815560408051600081526020810191829052516106dd916001840191611372565b5060408051600081526020810191829052516106fd916002840191611372565b5060020180546001810182556000918252602082200155505050565b6001600160a01b03821661076f5760405162461bcd60e51b815260206004820152601f60248201527f45524332303a206d696e7420746f20746865207a65726f20616464726573730060448201526064016102eb565b61077b60008383610e97565b806003600082825461078d9190611554565b90915550506001600160a01b038216600090815260016020526040812080548392906107ba908490611554565b90915550506040518181526001600160a01b038316906000907fddf252ad1be2c89b69c2b068fc378daa952ba7f163c4a11628f55a4df523b3ef9060200160405180910390a35050565b6001600160a01b0383166108665760405162461bcd60e51b8152602060048201526024808201527f45524332303a20617070726f76652066726f6d20746865207a65726f206164646044820152637265737360e01b60648201526084016102eb565b6001600160a01b0382166108c75760405162461bcd60e51b815260206004820152602260248201527f45524332303a20617070726f766520746f20746865207a65726f206164647265604482015261737360f01b60648201526084016102eb565b6001600160a01b0383811660008181526002602090815260408083209487168084529482529182902085905590518481527f8c5be1e5ebec7d5bd14f71427d1e84f3dd0314c0f7b2291e5b200ac8c7c3b92591015b60405180910390a3505050565b6001600160a01b0383811660009081526002602090815260408083209386168352929052205460001981146109b557818110156109a85760405162461bcd60e51b815260206004820152601d60248201527f45524332303a20696e73756666696369656e7420616c6c6f77616e636500000060448201526064016102eb565b6109b58484848403610804565b50505050565b6001600160a01b038316610a1f5760405162461bcd60e51b815260206004820152602560248201527f45524332303a207472616e736665722066726f6d20746865207a65726f206164604482015264647265737360d81b60648201526084016102eb565b6001600160a01b038216610a815760405162461bcd60e51b815260206004820152602360248201527f45524332303a207472616e7366657220746f20746865207a65726f206164647260448201526265737360e81b60648201526084016102eb565b610a8c838383610e97565b6001600160a01b03831660009081526001602052604090205481811015610b045760405162461bcd60e51b815260206004820152602660248201527f45524332303a207472616e7366657220616d6f756e7420657863656564732062604482015265616c616e636560d01b60648201526084016102eb565b6001600160a01b03808516600090815260016020526040808220858503905591851681529081208054849290610b3b908490611554565b92505081905550826001600160a01b0316846001600160a01b03167fddf252ad1be2c89b69c2b068fc378daa952ba7f163c4a11628f55a4df523b3ef84604051610b8791815260200190565b60405180910390a36109b5565b6000828152602084905260408120600281018054839182918290610bba57610bba611662565b906000526020600020015485610bd0919061160c565b90505b60028301548354610be5908490611580565b610bf0906001611554565b1015610c7f5760015b83548111610c7957600081848660000154610c149190611580565b610c1e9190611554565b90506000856002018281548110610c3757610c37611662565b90600052602060002001549050808410610c5c57610c55818561159f565b9350610c64565b509250610c79565b50508080610c71906115f1565b915050610bf9565b50610bd3565b50600090815260049091016020526040902054949350505050565b6000828152602084815260408083208484526003810190925282205480610cc45760009250610ce7565b816002018181548110610cd957610cd9611662565b906000526020600020015492505b50509392505050565b6001600160a01b038216610d505760405162461bcd60e51b815260206004820152602160248201527f45524332303a206275726e2066726f6d20746865207a65726f206164647265736044820152607360f81b60648201526084016102eb565b610d5c82600083610e97565b6001600160a01b03821660009081526001602052604090205481811015610dd05760405162461bcd60e51b815260206004820152602260248201527f45524332303a206275726e20616d6f756e7420657863656564732062616c616e604482015261636560f01b60648201526084016102eb565b6001600160a01b0383166000908152600160205260408120838303905560038054849290610dff90849061159f565b90915550506040518281526000906001600160a01b038516907fddf252ad1be2c89b69c2b068fc378daa952ba7f163c4a11628f55a4df523b3ef9060200161091c565b505050565b600080546001600160a01b038381166001600160a01b0319831681178455604051919092169283917fad78fb3403b687df144f8a6b1a4dc5452ab29ebc2b2e4dfce732c14be63b40eb9190a35050565b816001600160a01b0316836001600160a01b03161415610eb657505050565b6001600160a01b03831615610f11576001600160a01b038316600090815260016020526040812054610ee990839061159f565b9050610f0f6006600080516020611679833981519152836001600160a01b038816610f66565b505b6001600160a01b03821615610e42576001600160a01b038216600090815260016020526040812054610f44908390611554565b90506109b56006600080516020611679833981519152836001600160a01b0387165b60008381526020858152604080832084845260038101909252909120548061112c578315611127576001820154611079575060028101805460018082018355600092835260209092208101859055908114801590610fd857508154610fcc60018361159f565b610fd6919061160c565b155b15611074578154600090610fec908361156c565b600081815260048501602052604081205491925061100b846001611554565b90508460020185600201848154811061102657611026611662565b60009182526020808320909101548354600181018555938352818320909301929092559384526004860180825260408086208690558486526003880183528086208490559285529052909120555b6110f4565b60018083018054909161108b9161159f565b8154811061109b5761109b611662565b90600052602060002001549050816001018054806110bb576110bb61164c565b60019003818190600052602060002001600090559055838260020182815481106110e7576110e7611662565b6000918252602090912001555b600083815260038301602090815260408083208490558383526004850190915290208390556111278686836001886112b4565b6112ac565b836111c957600082600201828154811061114857611148611662565b90600052602060002001549050600083600201838154811061116c5761116c611662565b60009182526020808320909101929092556001808601805491820181558252828220018490558581526003850182526040808220829055848252600486019092529081208190556111c390889088908590856112b4565b506112ac565b8160020181815481106111de576111de611662565b906000526020600020015484146112ac5760008483600201838154811061120757611207611662565b90600052602060002001541115905060008161124d578584600201848154811061123357611233611662565b9060005260206000200154611248919061159f565b611278565b83600201838154811061126257611262611662565b906000526020600020015486611278919061159f565b90508584600201848154811061129057611290611662565b6000918252602090912001556112a988888585856112b4565b50505b505050505050565b6000848152602086905260409020835b80156113695781546112d760018361159f565b6112e1919061156c565b90508361131857828260020182815481106112fe576112fe611662565b9060005260206000200154611313919061159f565b611343565b8282600201828154811061132e5761132e611662565b90600052602060002001546113439190611554565b82600201828154811061135857611358611662565b6000918252602090912001556112c4565b50505050505050565b8280548282559060005260206000209081019282156113ad579160200282015b828111156113ad578251825591602001919060010190611392565b506113b99291506113bd565b5090565b5b808211156113b957600081556001016113be565b80356001600160a01b03811681146113e957600080fd5b919050565b60006020828403121561140057600080fd5b610449826113d2565b6000806040838503121561141c57600080fd5b611425836113d2565b9150611433602084016113d2565b90509250929050565b60008060006060848603121561145157600080fd5b61145a846113d2565b9250611468602085016113d2565b9150604084013590509250925092565b6000806040838503121561148b57600080fd5b611494836113d2565b946020939093013593505050565b6000602082840312156114b457600080fd5b5035919050565b600060208083528351808285015260005b818110156114e8578581018301518582016040015282016114cc565b818111156114fa576000604083870101525b50601f01601f1916929092016040019392505050565b60208082526024908201527f436f6e74726f6c6c65723a2043414c4c45525f49535f4e4f545f434f4e54524f604082015263262622a960e11b606082015260800190565b6000821982111561156757611567611620565b500190565b60008261157b5761157b611636565b500490565b600081600019048311821515161561159a5761159a611620565b500290565b6000828210156115b1576115b1611620565b500390565b600181811c908216806115ca57607f821691505b602082108114156115eb57634e487b7160e01b600052602260045260246000fd5b50919050565b600060001982141561160557611605611620565b5060010190565b60008261161b5761161b611636565b500690565b634e487b7160e01b600052601160045260246000fd5b634e487b7160e01b600052601260045260246000fd5b634e487b7160e01b600052603160045260246000fd5b634e487b7160e01b600052603260045260246000fdfe718b78f08f5fa7079154378b8cbc3a09cef2cca985ccd7c8d75cd8f7c6ac5685a2646970667358221220733a3475535deb79cd2ab19d999d2b5d8181279f1c4252873c23d1d6db8817fa64736f6c63430008070033",
  "immutableReferences": {},
  "source": "//SPDX-License-Identifier: MIT\n\npragma solidity ^0.8.0;\n\nimport \"sortition-sum-tree-factory/contracts/SortitionSumTreeFactory.sol\";\nimport \"./ControlledToken.sol\";\nimport \"../interfaces/ITicket.sol\";\n\ncontract Ticket is ITicket, ControlledToken {\n  using SortitionSumTreeFactory for SortitionSumTreeFactory.SortitionSumTrees;\n\n  bytes32 private constant TREE_KEY = keccak256(\"PryzeProtocol\");\n  uint256 private constant MAX_TREE_LEAVES = 5;\n\n  SortitionSumTreeFactory.SortitionSumTrees internal sortitionSumTrees;\n\n  /**\n   * @notice Create the Ticket token contract\n   * @param _name The name of the token\n   * @param _symbol The symbol of the token\n   * @param _controller The controller\n   */\n  constructor(\n    string memory _name,\n    string memory _symbol,\n    address _controller\n  ) ControlledToken(_name, _symbol, _controller) {\n    require(_controller != address(0), \"Ticket: CONTROLLER_NOT_ZERO\");\n    sortitionSumTrees.createTree(TREE_KEY, MAX_TREE_LEAVES);\n  }\n\n  /**\n   * Return the amount of tickets owned by the `user`\n   * @param _user Address of the user\n   * @return The amount of token owned by the `user`\n   */\n  function stakeOf(address _user) external view override returns (uint256) {\n    return\n      sortitionSumTrees.stakeOf(TREE_KEY, bytes32(uint256(uint160(_user))));\n  }\n\n  /**\n   * Draw an address from a tree using a number.\n   * Note that this function reverts if the sum of all values in the tree is 0.\n   * @param _number The drawn number\n   * @return The address drawn\n   */\n  function draw(uint256 _number) external view override returns (address) {\n    uint256 bound = totalSupply();\n    address selected;\n    if (bound == 0) {\n      selected = address(0);\n    } else {\n      selected = address(\n        uint160(uint256(sortitionSumTrees.draw(TREE_KEY, _number)))\n      );\n    }\n    return selected;\n  }\n\n  function _beforeTokenTransfer(\n    address _from,\n    address _to,\n    uint256 _amount\n  ) internal virtual override {\n    super._beforeTokenTransfer(_from, _to, _amount);\n\n    if (_from == _to) {\n      return;\n    }\n\n    if (_from != address(0)) {\n      uint256 fromBalance = balanceOf(_from) - _amount;\n      sortitionSumTrees.set(\n        TREE_KEY,\n        fromBalance,\n        bytes32(uint256(uint160(_from)))\n      );\n    }\n\n    if (_to != address(0)) {\n      uint256 toBalance = balanceOf(_to) + _amount;\n      sortitionSumTrees.set(\n        TREE_KEY,\n        toBalance,\n        bytes32(uint256(uint160(_to)))\n      );\n    }\n  }\n}\n",
  "sourcePath": "/Users/niccolofant/dev/Solidity/pryze-protocol/pryze-core/contracts/token/Ticket.sol",
  "compiler": {
    "name": "solc",
    "version": "0.8.7+commit.e28d00a7.Emscripten.clang"
  },
  "schemaVersion": "3.4.3",
  "updatedAt": "2022-02-24T09:48:37.372Z",
  "devdoc": {
    "kind": "dev",
    "methods": {
      "allowance(address,address)": {
        "details": "See {IERC20-allowance}."
      },
      "approve(address,uint256)": {
        "details": "See {IERC20-approve}. NOTE: If `amount` is the maximum `uint256`, the allowance is not updated on `transferFrom`. This is semantically equivalent to an infinite approval. Requirements: - `spender` cannot be the zero address."
      },
      "balanceOf(address)": {
        "details": "See {IERC20-balanceOf}."
      },
      "constructor": {
        "params": {
          "_controller": "The controller",
          "_name": "The name of the token",
          "_symbol": "The symbol of the token"
        }
      },
      "controlledBurn(address,uint256)": {
        "params": {
          "_amount": "The amount of tokens to burn",
          "_user": "The address to burn tokens from"
        }
      },
      "controlledMint(address,uint256)": {
        "params": {
          "_amount": "The amount of tokens to mint",
          "_user": "The address to mint tokens to"
        }
      },
      "decimals()": {
        "details": "Returns the number of decimals used to get its user representation. For example, if `decimals` equals `2`, a balance of `505` tokens should be displayed to a user as `5.05` (`505 / 10 ** 2`). Tokens usually opt for a value of 18, imitating the relationship between Ether and Wei. This is the value {ERC20} uses, unless this function is overridden; NOTE: This information is only used for _display_ purposes: it in no way affects any of the arithmetic of the contract, including {IERC20-balanceOf} and {IERC20-transfer}."
      },
      "decreaseAllowance(address,uint256)": {
        "details": "Atomically decreases the allowance granted to `spender` by the caller. This is an alternative to {approve} that can be used as a mitigation for problems described in {IERC20-approve}. Emits an {Approval} event indicating the updated allowance. Requirements: - `spender` cannot be the zero address. - `spender` must have allowance for the caller of at least `subtractedValue`."
      },
      "draw(uint256)": {
        "params": {
          "_number": "The drawn number"
        },
        "returns": {
          "_0": "The address drawn"
        }
      },
      "increaseAllowance(address,uint256)": {
        "details": "Atomically increases the allowance granted to `spender` by the caller. This is an alternative to {approve} that can be used as a mitigation for problems described in {IERC20-approve}. Emits an {Approval} event indicating the updated allowance. Requirements: - `spender` cannot be the zero address."
      },
      "name()": {
        "details": "Returns the name of the token."
      },
      "stakeOf(address)": {
        "params": {
          "_user": "Address of the user"
        },
        "returns": {
          "_0": "The amount of token owned by the `user`"
        }
      },
      "symbol()": {
        "details": "Returns the symbol of the token, usually a shorter version of the name."
      },
      "totalSupply()": {
        "details": "See {IERC20-totalSupply}."
      },
      "transfer(address,uint256)": {
        "details": "See {IERC20-transfer}. Requirements: - `to` cannot be the zero address. - the caller must have a balance of at least `amount`."
      },
      "transferFrom(address,address,uint256)": {
        "details": "See {IERC20-transferFrom}. Emits an {Approval} event indicating the updated allowance. This is not required by the EIP. See the note at the beginning of {ERC20}. NOTE: Does not update the allowance if the current allowance is the maximum `uint256`. Requirements: - `from` and `to` cannot be the zero address. - `from` must have a balance of at least `amount`. - the caller must have allowance for ``from``'s tokens of at least `amount`."
      }
    },
    "version": 1
  },
  "userdoc": {
    "kind": "user",
    "methods": {
      "constructor": {
        "notice": "Create the Ticket token contract"
      },
      "controlledBurn(address,uint256)": {
        "notice": "Allows the controller to burn `_amount` of tokens from the `_user` address"
      },
      "controlledMint(address,uint256)": {
        "notice": "Allows the controller to mint `_amount` of tokens to the `_user` address"
      },
      "draw(uint256)": {
        "notice": "Draw an address from a tree using a number. Note that this function reverts if the sum of all values in the tree is 0."
      },
      "stakeOf(address)": {
        "notice": "Return the amount of tickets owned by the `user`"
      }
    },
    "version": 1
  }
}