{
  "contractName": "Ticket",
  "abi": [
    {
      "inputs": [
        {
          "internalType": "string",
          "name": "_name",
          "type": "string"
        },
        {
          "internalType": "string",
          "name": "_symbol",
          "type": "string"
        },
        {
          "internalType": "address",
          "name": "_controller",
          "type": "address"
        }
      ],
      "stateMutability": "nonpayable",
      "type": "constructor"
    },
    {
      "anonymous": false,
      "inputs": [
        {
          "indexed": true,
          "internalType": "address",
          "name": "owner",
          "type": "address"
        },
        {
          "indexed": true,
          "internalType": "address",
          "name": "spender",
          "type": "address"
        },
        {
          "indexed": false,
          "internalType": "uint256",
          "name": "value",
          "type": "uint256"
        }
      ],
      "name": "Approval",
      "type": "event"
    },
    {
      "anonymous": false,
      "inputs": [
        {
          "indexed": true,
          "internalType": "address",
          "name": "oldController",
          "type": "address"
        },
        {
          "indexed": true,
          "internalType": "address",
          "name": "newController",
          "type": "address"
        }
      ],
      "name": "ControllerRoleTransferred",
      "type": "event"
    },
    {
      "anonymous": false,
      "inputs": [
        {
          "indexed": true,
          "internalType": "address",
          "name": "from",
          "type": "address"
        },
        {
          "indexed": true,
          "internalType": "address",
          "name": "to",
          "type": "address"
        },
        {
          "indexed": false,
          "internalType": "uint256",
          "name": "value",
          "type": "uint256"
        }
      ],
      "name": "Transfer",
      "type": "event"
    },
    {
      "inputs": [
        {
          "internalType": "address",
          "name": "owner",
          "type": "address"
        },
        {
          "internalType": "address",
          "name": "spender",
          "type": "address"
        }
      ],
      "name": "allowance",
      "outputs": [
        {
          "internalType": "uint256",
          "name": "",
          "type": "uint256"
        }
      ],
      "stateMutability": "view",
      "type": "function"
    },
    {
      "inputs": [
        {
          "internalType": "address",
          "name": "spender",
          "type": "address"
        },
        {
          "internalType": "uint256",
          "name": "amount",
          "type": "uint256"
        }
      ],
      "name": "approve",
      "outputs": [
        {
          "internalType": "bool",
          "name": "",
          "type": "bool"
        }
      ],
      "stateMutability": "nonpayable",
      "type": "function"
    },
    {
      "inputs": [
        {
          "internalType": "address",
          "name": "account",
          "type": "address"
        }
      ],
      "name": "balanceOf",
      "outputs": [
        {
          "internalType": "uint256",
          "name": "",
          "type": "uint256"
        }
      ],
      "stateMutability": "view",
      "type": "function"
    },
    {
      "inputs": [],
      "name": "controller",
      "outputs": [
        {
          "internalType": "address",
          "name": "",
          "type": "address"
        }
      ],
      "stateMutability": "view",
      "type": "function"
    },
    {
      "inputs": [],
      "name": "decimals",
      "outputs": [
        {
          "internalType": "uint8",
          "name": "",
          "type": "uint8"
        }
      ],
      "stateMutability": "view",
      "type": "function"
    },
    {
      "inputs": [
        {
          "internalType": "address",
          "name": "spender",
          "type": "address"
        },
        {
          "internalType": "uint256",
          "name": "subtractedValue",
          "type": "uint256"
        }
      ],
      "name": "decreaseAllowance",
      "outputs": [
        {
          "internalType": "bool",
          "name": "",
          "type": "bool"
        }
      ],
      "stateMutability": "nonpayable",
      "type": "function"
    },
    {
      "inputs": [
        {
          "internalType": "address",
          "name": "spender",
          "type": "address"
        },
        {
          "internalType": "uint256",
          "name": "addedValue",
          "type": "uint256"
        }
      ],
      "name": "increaseAllowance",
      "outputs": [
        {
          "internalType": "bool",
          "name": "",
          "type": "bool"
        }
      ],
      "stateMutability": "nonpayable",
      "type": "function"
    },
    {
      "inputs": [],
      "name": "name",
      "outputs": [
        {
          "internalType": "string",
          "name": "",
          "type": "string"
        }
      ],
      "stateMutability": "view",
      "type": "function"
    },
    {
      "inputs": [],
      "name": "symbol",
      "outputs": [
        {
          "internalType": "string",
          "name": "",
          "type": "string"
        }
      ],
      "stateMutability": "view",
      "type": "function"
    },
    {
      "inputs": [],
      "name": "totalSupply",
      "outputs": [
        {
          "internalType": "uint256",
          "name": "",
          "type": "uint256"
        }
      ],
      "stateMutability": "view",
      "type": "function"
    },
    {
      "inputs": [
        {
          "internalType": "address",
          "name": "to",
          "type": "address"
        },
        {
          "internalType": "uint256",
          "name": "amount",
          "type": "uint256"
        }
      ],
      "name": "transfer",
      "outputs": [
        {
          "internalType": "bool",
          "name": "",
          "type": "bool"
        }
      ],
      "stateMutability": "nonpayable",
      "type": "function"
    },
    {
      "inputs": [
        {
          "internalType": "address",
          "name": "_newController",
          "type": "address"
        }
      ],
      "name": "transferControllerRole",
      "outputs": [],
      "stateMutability": "nonpayable",
      "type": "function"
    },
    {
      "inputs": [
        {
          "internalType": "address",
          "name": "from",
          "type": "address"
        },
        {
          "internalType": "address",
          "name": "to",
          "type": "address"
        },
        {
          "internalType": "uint256",
          "name": "amount",
          "type": "uint256"
        }
      ],
      "name": "transferFrom",
      "outputs": [
        {
          "internalType": "bool",
          "name": "",
          "type": "bool"
        }
      ],
      "stateMutability": "nonpayable",
      "type": "function"
    },
    {
      "inputs": [
        {
          "internalType": "address",
          "name": "_user",
          "type": "address"
        }
      ],
      "name": "stakeOf",
      "outputs": [
        {
          "internalType": "uint256",
          "name": "",
          "type": "uint256"
        }
      ],
      "stateMutability": "view",
      "type": "function"
    },
    {
      "inputs": [
        {
          "internalType": "uint256",
          "name": "_number",
          "type": "uint256"
        }
      ],
      "name": "draw",
      "outputs": [
        {
          "internalType": "address",
          "name": "",
          "type": "address"
        }
      ],
      "stateMutability": "view",
      "type": "function"
    }
  ],
  "bytecode": "0x60806040523480156200001157600080fd5b50604051620019b9380380620019b9833981016040819052620000349162000507565b82828282828262000045816200011d565b5081516200005b9060049060208501906200036d565b508051620000719060059060208401906200036d565b50505050506001600160a01b03821615159050620000d65760405162461bcd60e51b815260206004820152601b60248201527f5469636b65743a20434f4e54524f4c4c45525f4e4f545f5a45524f000000000060448201526064015b60405180910390fd5b620001147f718b78f08f5fa7079154378b8cbc3a09cef2cca985ccd7c8d75cd8f7c6ac5685600560066200020a60201b62000589179092919060201c565b505050620005e7565b33620001316000546001600160a01b031690565b6001600160a01b031614620001955760405162461bcd60e51b8152602060048201526024808201527f436f6e74726f6c6c65723a2043414c4c45525f49535f4e4f545f434f4e54524f604482015263262622a960e11b6064820152608401620000cd565b6001600160a01b038116620001fc5760405162461bcd60e51b815260206004820152602660248201527f436f6e74726f6c6c65723a20434f4e54524f4c4c45525f49535f5a45524f5f4160448201526544445245535360d01b6064820152608401620000cd565b62000207816200031d565b50565b6000828152602084905260409020805415620002695760405162461bcd60e51b815260206004820152601460248201527f5472656520616c7265616479206578697374732e0000000000000000000000006044820152606401620000cd565b60018211620002bb5760405162461bcd60e51b815260206004820152601b60248201527f4b206d7573742062652067726561746572207468616e206f6e652e00000000006044820152606401620000cd565b8181556040805160008152602081019182905251620002df916001840191620003fc565b50604080516000815260208101918290525162000301916002840191620003fc565b5060020180546001810182556000918252602082200155505050565b600080546001600160a01b038381166001600160a01b0319831681178455604051919092169283917fad78fb3403b687df144f8a6b1a4dc5452ab29ebc2b2e4dfce732c14be63b40eb9190a35050565b8280546200037b9062000594565b90600052602060002090601f0160209004810192826200039f5760008555620003ea565b82601f10620003ba57805160ff1916838001178555620003ea565b82800160010185558215620003ea579182015b82811115620003ea578251825591602001919060010190620003cd565b50620003f892915062000439565b5090565b828054828255906000526020600020908101928215620003ea5791602002820182811115620003ea578251825591602001919060010190620003cd565b5b80821115620003f857600081556001016200043a565b600082601f8301126200046257600080fd5b81516001600160401b03808211156200047f576200047f620005d1565b604051601f8301601f19908116603f01168101908282118183101715620004aa57620004aa620005d1565b81604052838152602092508683858801011115620004c757600080fd5b600091505b83821015620004eb5785820183015181830184015290820190620004cc565b83821115620004fd5760008385830101525b9695505050505050565b6000806000606084860312156200051d57600080fd5b83516001600160401b03808211156200053557600080fd5b620005438783880162000450565b945060208601519150808211156200055a57600080fd5b50620005698682870162000450565b604086015190935090506001600160a01b03811681146200058957600080fd5b809150509250925092565b600181811c90821680620005a957607f821691505b60208210811415620005cb57634e487b7160e01b600052602260045260246000fd5b50919050565b634e487b7160e01b600052604160045260246000fd5b6113c280620005f76000396000f3fe608060405234801561001057600080fd5b50600436106100f55760003560e01c80634262336011610097578063a457c2d711610066578063a457c2d714610206578063a9059cbb14610219578063dd62ed3e1461022c578063f77c47911461026557600080fd5b806342623360146101ad57806370a08231146101c057806387f06ed7146101e957806395d89b41146101fe57600080fd5b806323b872dd116100d357806323b872dd1461014d578063313ce56714610160578063395093511461016f5780633b3041471461018257600080fd5b806306fdde03146100fa578063095ea7b31461011857806318160ddd1461013b575b600080fd5b610102610276565b60405161010f91906111f3565b60405180910390f35b61012b6101263660046111b0565b610308565b604051901515815260200161010f565b6003545b60405190815260200161010f565b61012b61015b366004611174565b610320565b6040516012815260200161010f565b61012b61017d3660046111b0565b610344565b6101956101903660046111da565b610383565b6040516001600160a01b03909116815260200161010f565b61013f6101bb366004611126565b6103c4565b61013f6101ce366004611126565b6001600160a01b031660009081526001602052604090205490565b6101fc6101f7366004611126565b6103ef565b005b6101026104da565b61012b6102143660046111b0565b6104e9565b61012b6102273660046111b0565b61057b565b61013f61023a366004611141565b6001600160a01b03918216600090815260026020908152604080832093909416825291909152205490565b6000546001600160a01b0316610195565b606060048054610285906112aa565b80601f01602080910402602001604051908101604052809291908181526020018280546102b1906112aa565b80156102fe5780601f106102d3576101008083540402835291602001916102fe565b820191906000526020600020905b8154815290600101906020018083116102e157829003601f168201915b5050505050905090565b60003361031681858561068b565b5060019392505050565b60003361032e8582856107af565b610339858585610841565b506001949350505050565b3360008181526002602090815260408083206001600160a01b0387168452909152812054909190610316908290869061037e908790611248565b61068b565b60008061038f60035490565b90506000816103a0575060006103bd565b6103ba600660008051602061136d83398151915286610a1a565b90505b9392505050565b60006103e9600660008051602061136d8339815191526001600160a01b038516610b20565b92915050565b336104026000546001600160a01b031690565b6001600160a01b0316146104695760405162461bcd60e51b8152602060048201526024808201527f436f6e74726f6c6c65723a2043414c4c45525f49535f4e4f545f434f4e54524f604482015263262622a960e11b60648201526084015b60405180910390fd5b6001600160a01b0381166104ce5760405162461bcd60e51b815260206004820152602660248201527f436f6e74726f6c6c65723a20434f4e54524f4c4c45525f49535f5a45524f5f4160448201526544445245535360d01b6064820152608401610460565b6104d781610b76565b50565b606060058054610285906112aa565b3360008181526002602090815260408083206001600160a01b03871684529091528120549091908381101561056e5760405162461bcd60e51b815260206004820152602560248201527f45524332303a2064656372656173656420616c6c6f77616e63652062656c6f77604482015264207a65726f60d81b6064820152608401610460565b610339828686840361068b565b600033610316818585610841565b60008281526020849052604090208054156105dd5760405162461bcd60e51b81526020600482015260146024820152732a3932b29030b63932b0b23c9032bc34b9ba399760611b6044820152606401610460565b6001821161062d5760405162461bcd60e51b815260206004820152601b60248201527f4b206d7573742062652067726561746572207468616e206f6e652e00000000006044820152606401610460565b818155604080516000815260208101918290525161064f9160018401916110aa565b50604080516000815260208101918290525161066f9160028401916110aa565b5060020180546001810182556000918252602082200155505050565b6001600160a01b0383166106ed5760405162461bcd60e51b8152602060048201526024808201527f45524332303a20617070726f76652066726f6d20746865207a65726f206164646044820152637265737360e01b6064820152608401610460565b6001600160a01b03821661074e5760405162461bcd60e51b815260206004820152602260248201527f45524332303a20617070726f766520746f20746865207a65726f206164647265604482015261737360f01b6064820152608401610460565b6001600160a01b0383811660008181526002602090815260408083209487168084529482529182902085905590518481527f8c5be1e5ebec7d5bd14f71427d1e84f3dd0314c0f7b2291e5b200ac8c7c3b925910160405180910390a3505050565b6001600160a01b03838116600090815260026020908152604080832093861683529290522054600019811461083b578181101561082e5760405162461bcd60e51b815260206004820152601d60248201527f45524332303a20696e73756666696369656e7420616c6c6f77616e63650000006044820152606401610460565b61083b848484840361068b565b50505050565b6001600160a01b0383166108a55760405162461bcd60e51b815260206004820152602560248201527f45524332303a207472616e736665722066726f6d20746865207a65726f206164604482015264647265737360d81b6064820152608401610460565b6001600160a01b0382166109075760405162461bcd60e51b815260206004820152602360248201527f45524332303a207472616e7366657220746f20746865207a65726f206164647260448201526265737360e81b6064820152608401610460565b610912838383610bc6565b6001600160a01b0383166000908152600160205260409020548181101561098a5760405162461bcd60e51b815260206004820152602660248201527f45524332303a207472616e7366657220616d6f756e7420657863656564732062604482015265616c616e636560d01b6064820152608401610460565b6001600160a01b038085166000908152600160205260408082208585039055918516815290812080548492906109c1908490611248565b92505081905550826001600160a01b0316846001600160a01b03167fddf252ad1be2c89b69c2b068fc378daa952ba7f163c4a11628f55a4df523b3ef84604051610a0d91815260200190565b60405180910390a361083b565b6000828152602084905260408120600281018054839182918290610a4057610a40611356565b906000526020600020015485610a569190611300565b90505b60028301548354610a6b908490611274565b610a76906001611248565b1015610b055760015b83548111610aff57600081848660000154610a9a9190611274565b610aa49190611248565b90506000856002018281548110610abd57610abd611356565b90600052602060002001549050808410610ae257610adb8185611293565b9350610aea565b509250610aff565b50508080610af7906112e5565b915050610a7f565b50610a59565b50600090815260049091016020526040902054949350505050565b6000828152602084815260408083208484526003810190925282205480610b4a5760009250610b6d565b816002018181548110610b5f57610b5f611356565b906000526020600020015492505b50509392505050565b600080546001600160a01b038381166001600160a01b0319831681178455604051919092169283917fad78fb3403b687df144f8a6b1a4dc5452ab29ebc2b2e4dfce732c14be63b40eb9190a35050565b816001600160a01b0316836001600160a01b03161415610be557505050565b6001600160a01b03831615610c40576001600160a01b038316600090815260016020526040812054610c18908390611293565b9050610c3e600660008051602061136d833981519152836001600160a01b038816610c9e565b505b6001600160a01b03821615610c99576001600160a01b038216600090815260016020526040812054610c73908390611248565b905061083b600660008051602061136d833981519152836001600160a01b038716610c9e565b505050565b600083815260208581526040808320848452600381019092529091205480610e64578315610e5f576001820154610db1575060028101805460018082018355600092835260209092208101859055908114801590610d1057508154610d04600183611293565b610d0e9190611300565b155b15610dac578154600090610d249083611260565b6000818152600485016020526040812054919250610d43846001611248565b905084600201856002018481548110610d5e57610d5e611356565b60009182526020808320909101548354600181018555938352818320909301929092559384526004860180825260408086208690558486526003880183528086208490559285529052909120555b610e2c565b600180830180549091610dc391611293565b81548110610dd357610dd3611356565b9060005260206000200154905081600101805480610df357610df3611340565b6001900381819060005260206000200160009055905583826002018281548110610e1f57610e1f611356565b6000918252602090912001555b60008381526003830160209081526040808320849055838352600485019091529020839055610e5f868683600188610fec565b610fe4565b83610f01576000826002018281548110610e8057610e80611356565b906000526020600020015490506000836002018381548110610ea457610ea4611356565b6000918252602080832090910192909255600180860180549182018155825282822001849055858152600385018252604080822082905584825260048601909252908120819055610efb9088908890859085610fec565b50610fe4565b816002018181548110610f1657610f16611356565b90600052602060002001548414610fe457600084836002018381548110610f3f57610f3f611356565b906000526020600020015411159050600081610f855785846002018481548110610f6b57610f6b611356565b9060005260206000200154610f809190611293565b610fb0565b836002018381548110610f9a57610f9a611356565b906000526020600020015486610fb09190611293565b905085846002018481548110610fc857610fc8611356565b600091825260209091200155610fe18888858585610fec565b50505b505050505050565b6000848152602086905260409020835b80156110a157815461100f600183611293565b6110199190611260565b905083611050578282600201828154811061103657611036611356565b906000526020600020015461104b9190611293565b61107b565b8282600201828154811061106657611066611356565b906000526020600020015461107b9190611248565b82600201828154811061109057611090611356565b600091825260209091200155610ffc565b50505050505050565b8280548282559060005260206000209081019282156110e5579160200282015b828111156110e55782518255916020019190600101906110ca565b506110f19291506110f5565b5090565b5b808211156110f157600081556001016110f6565b80356001600160a01b038116811461112157600080fd5b919050565b60006020828403121561113857600080fd5b6103bd8261110a565b6000806040838503121561115457600080fd5b61115d8361110a565b915061116b6020840161110a565b90509250929050565b60008060006060848603121561118957600080fd5b6111928461110a565b92506111a06020850161110a565b9150604084013590509250925092565b600080604083850312156111c357600080fd5b6111cc8361110a565b946020939093013593505050565b6000602082840312156111ec57600080fd5b5035919050565b600060208083528351808285015260005b8181101561122057858101830151858201604001528201611204565b81811115611232576000604083870101525b50601f01601f1916929092016040019392505050565b6000821982111561125b5761125b611314565b500190565b60008261126f5761126f61132a565b500490565b600081600019048311821515161561128e5761128e611314565b500290565b6000828210156112a5576112a5611314565b500390565b600181811c908216806112be57607f821691505b602082108114156112df57634e487b7160e01b600052602260045260246000fd5b50919050565b60006000198214156112f9576112f9611314565b5060010190565b60008261130f5761130f61132a565b500690565b634e487b7160e01b600052601160045260246000fd5b634e487b7160e01b600052601260045260246000fd5b634e487b7160e01b600052603160045260246000fd5b634e487b7160e01b600052603260045260246000fdfe718b78f08f5fa7079154378b8cbc3a09cef2cca985ccd7c8d75cd8f7c6ac5685a264697066735822122085956b05c8f714deed279aee1dd26a7e257d77a855466c4db50c8cdc70fa15b664736f6c63430008070033",
  "immutableReferences": {},
  "source": "//SPDX-License-Identifier: MIT\n\npragma solidity ^0.8.0;\n\nimport \"sortition-sum-tree-factory/contracts/SortitionSumTreeFactory.sol\";\nimport \"./ControlledToken.sol\";\nimport \"../interfaces/ITicket.sol\";\n\ncontract Ticket is ITicket, ControlledToken {\n  using SortitionSumTreeFactory for SortitionSumTreeFactory.SortitionSumTrees;\n\n  bytes32 private constant TREE_KEY = keccak256(\"PryzeProtocol\");\n  uint256 private constant MAX_TREE_LEAVES = 5;\n\n  SortitionSumTreeFactory.SortitionSumTrees internal sortitionSumTrees;\n\n  /**\n   * @notice Create the Ticket token contract\n   * @param _name The name of the token\n   * @param _symbol The symbol of the token\n   * @param _controller The controller\n   */\n  constructor(\n    string memory _name,\n    string memory _symbol,\n    address _controller\n  ) ControlledToken(_name, _symbol, _controller) {\n    require(_controller != address(0), \"Ticket: CONTROLLER_NOT_ZERO\");\n    sortitionSumTrees.createTree(TREE_KEY, MAX_TREE_LEAVES);\n  }\n\n  /**\n   * Return the amount of tickets owned by the `user`\n   * @param _user Address of the user\n   * @return The amount of token owned by the `user`\n   */\n  function stakeOf(address _user) external view override returns (uint256) {\n    return\n      sortitionSumTrees.stakeOf(TREE_KEY, bytes32(uint256(uint160(_user))));\n  }\n\n  /**\n   * Draw an address from a tree using a number.\n   * Note that this function reverts if the sum of all values in the tree is 0.\n   * @param _number The drawn number\n   * @return The address drawn\n   */\n  function draw(uint256 _number) external view override returns (address) {\n    uint256 bound = totalSupply();\n    address selected;\n    if (bound == 0) {\n      selected = address(0);\n    } else {\n      selected = address(\n        uint160(uint256(sortitionSumTrees.draw(TREE_KEY, _number)))\n      );\n    }\n    return selected;\n  }\n\n  function _beforeTokenTransfer(\n    address _from,\n    address _to,\n    uint256 _amount\n  ) internal virtual override {\n    super._beforeTokenTransfer(_from, _to, _amount);\n\n    if (_from == _to) {\n      return;\n    }\n\n    if (_from != address(0)) {\n      uint256 fromBalance = balanceOf(_from) - _amount;\n      sortitionSumTrees.set(\n        TREE_KEY,\n        fromBalance,\n        bytes32(uint256(uint160(_from)))\n      );\n    }\n\n    if (_to != address(0)) {\n      uint256 toBalance = balanceOf(_to) + _amount;\n      sortitionSumTrees.set(\n        TREE_KEY,\n        toBalance,\n        bytes32(uint256(uint160(_to)))\n      );\n    }\n  }\n}\n",
  "sourcePath": "/Users/niccolofant/dev/Solidity/pryze-protocol/pryze-core/contracts/token/Ticket.sol",
  "compiler": {
    "name": "solc",
    "version": "0.8.7+commit.e28d00a7.Emscripten.clang"
  },
  "schemaVersion": "3.4.3",
  "updatedAt": "2022-02-18T11:57:54.834Z",
  "devdoc": {
    "kind": "dev",
    "methods": {
      "allowance(address,address)": {
        "details": "See {IERC20-allowance}."
      },
      "approve(address,uint256)": {
        "details": "See {IERC20-approve}. NOTE: If `amount` is the maximum `uint256`, the allowance is not updated on `transferFrom`. This is semantically equivalent to an infinite approval. Requirements: - `spender` cannot be the zero address."
      },
      "balanceOf(address)": {
        "details": "See {IERC20-balanceOf}."
      },
      "constructor": {
        "params": {
          "_controller": "The controller",
          "_name": "The name of the token",
          "_symbol": "The symbol of the token"
        }
      },
      "decimals()": {
        "details": "Returns the number of decimals used to get its user representation. For example, if `decimals` equals `2`, a balance of `505` tokens should be displayed to a user as `5.05` (`505 / 10 ** 2`). Tokens usually opt for a value of 18, imitating the relationship between Ether and Wei. This is the value {ERC20} uses, unless this function is overridden; NOTE: This information is only used for _display_ purposes: it in no way affects any of the arithmetic of the contract, including {IERC20-balanceOf} and {IERC20-transfer}."
      },
      "decreaseAllowance(address,uint256)": {
        "details": "Atomically decreases the allowance granted to `spender` by the caller. This is an alternative to {approve} that can be used as a mitigation for problems described in {IERC20-approve}. Emits an {Approval} event indicating the updated allowance. Requirements: - `spender` cannot be the zero address. - `spender` must have allowance for the caller of at least `subtractedValue`."
      },
      "draw(uint256)": {
        "params": {
          "_number": "The drawn number"
        },
        "returns": {
          "_0": "The address drawn"
        }
      },
      "increaseAllowance(address,uint256)": {
        "details": "Atomically increases the allowance granted to `spender` by the caller. This is an alternative to {approve} that can be used as a mitigation for problems described in {IERC20-approve}. Emits an {Approval} event indicating the updated allowance. Requirements: - `spender` cannot be the zero address."
      },
      "name()": {
        "details": "Returns the name of the token."
      },
      "stakeOf(address)": {
        "params": {
          "_user": "Address of the user"
        },
        "returns": {
          "_0": "The amount of token owned by the `user`"
        }
      },
      "symbol()": {
        "details": "Returns the symbol of the token, usually a shorter version of the name."
      },
      "totalSupply()": {
        "details": "See {IERC20-totalSupply}."
      },
      "transfer(address,uint256)": {
        "details": "See {IERC20-transfer}. Requirements: - `to` cannot be the zero address. - the caller must have a balance of at least `amount`."
      },
      "transferFrom(address,address,uint256)": {
        "details": "See {IERC20-transferFrom}. Emits an {Approval} event indicating the updated allowance. This is not required by the EIP. See the note at the beginning of {ERC20}. NOTE: Does not update the allowance if the current allowance is the maximum `uint256`. Requirements: - `from` and `to` cannot be the zero address. - `from` must have a balance of at least `amount`. - the caller must have allowance for ``from``'s tokens of at least `amount`."
      }
    },
    "version": 1
  },
  "userdoc": {
    "kind": "user",
    "methods": {
      "constructor": {
        "notice": "Create the Ticket token contract"
      },
      "draw(uint256)": {
        "notice": "Draw an address from a tree using a number. Note that this function reverts if the sum of all values in the tree is 0."
      },
      "stakeOf(address)": {
        "notice": "Return the amount of tickets owned by the `user`"
      }
    },
    "version": 1
  }
}