{
  "contractName": "VRFConsumerV2",
  "abi": [
    {
      "inputs": [],
      "stateMutability": "nonpayable",
      "type": "constructor"
    },
    {
      "inputs": [
        {
          "internalType": "address",
          "name": "have",
          "type": "address"
        },
        {
          "internalType": "address",
          "name": "want",
          "type": "address"
        }
      ],
      "name": "OnlyCoordinatorCanFulfill",
      "type": "error"
    },
    {
      "anonymous": false,
      "inputs": [
        {
          "indexed": false,
          "internalType": "uint256",
          "name": "requestId",
          "type": "uint256"
        },
        {
          "indexed": false,
          "internalType": "uint256[]",
          "name": "randomWords",
          "type": "uint256[]"
        }
      ],
      "name": "RequestFullfilled",
      "type": "event"
    },
    {
      "anonymous": false,
      "inputs": [
        {
          "indexed": false,
          "internalType": "uint256",
          "name": "requestId",
          "type": "uint256"
        },
        {
          "indexed": false,
          "internalType": "uint64",
          "name": "subscriptionId",
          "type": "uint64"
        }
      ],
      "name": "RequestInitialized",
      "type": "event"
    },
    {
      "inputs": [
        {
          "internalType": "uint256",
          "name": "requestId",
          "type": "uint256"
        },
        {
          "internalType": "uint256[]",
          "name": "randomWords",
          "type": "uint256[]"
        }
      ],
      "name": "rawFulfillRandomWords",
      "outputs": [],
      "stateMutability": "nonpayable",
      "type": "function"
    },
    {
      "inputs": [],
      "name": "_getRandomWords",
      "outputs": [
        {
          "internalType": "uint256[]",
          "name": "",
          "type": "uint256[]"
        }
      ],
      "stateMutability": "view",
      "type": "function"
    },
    {
      "inputs": [
        {
          "internalType": "uint256",
          "name": "_index",
          "type": "uint256"
        }
      ],
      "name": "_getRandomWord",
      "outputs": [
        {
          "internalType": "uint256",
          "name": "",
          "type": "uint256"
        }
      ],
      "stateMutability": "view",
      "type": "function"
    }
  ],
  "bytecode": "0x60a06040526005805465ffffffffffff19166403000186a017905534801561002657600080fd5b506002546001600160601b0319606082901b16608052600080546001600160a01b03199081166001600160a01b0393841690811783556003546001805490931694169390931790556104389061008b90396000818160a1015260e301526104386000f3fe608060405234801561001057600080fd5b50600436106100415760003560e01c80631fe543e314610046578063881b32371461005b578063dd88a97414610081575b600080fd5b61005961005436600461026e565b610096565b005b61006e610069366004610255565b610122565b6040519081526020015b60405180910390f35b610089610149565b604051610078919061033f565b336001600160a01b037f000000000000000000000000000000000000000000000000000000000000000016146101145760405163073e64fd60e21b81523360048201526001600160a01b037f000000000000000000000000000000000000000000000000000000000000000016602482015260440160405180910390fd5b61011e82826101a1565b5050565b600060068281548110610137576101376103d6565b90600052602060002001549050919050565b6060600680548060200260200160405190810160405280929190818152602001828054801561019757602002820191906000526020600020905b815481526020019060010190808311610183575b5050505050905090565b80516101b49060069060208401906101f5565b507f101e9369ba3134fda0b87a5e930145d58414fe85d4f1c1bee5657cc6f171088860075460066040516101e9929190610383565b60405180910390a15050565b828054828255906000526020600020908101928215610230579160200282015b82811115610230578251825591602001919060010190610215565b5061023c929150610240565b5090565b5b8082111561023c5760008155600101610241565b60006020828403121561026757600080fd5b5035919050565b6000806040838503121561028157600080fd5b8235915060208084013567ffffffffffffffff808211156102a157600080fd5b818601915086601f8301126102b557600080fd5b8135818111156102c7576102c76103ec565b8060051b604051601f19603f830116810181811085821117156102ec576102ec6103ec565b604052828152858101935084860182860187018b101561030b57600080fd5b600095505b8386101561032e578035855260019590950194938601938601610310565b508096505050505050509250929050565b6020808252825182820181905260009190848201906040850190845b818110156103775783518352928401929184019160010161035b565b50909695505050505050565b60006040820184835260206040818501528185548084526060860191508660005282600020935060005b818110156103c9578454835260019485019492840192016103ad565b5090979650505050505050565b634e487b7160e01b600052603260045260246000fd5b634e487b7160e01b600052604160045260246000fdfea26469706673582212204983f2d6daf2d84dd0fbb184f236dc6297bb61e846f4b5043327bb6eda2bda3464736f6c63430008070033",
  "immutableReferences": {
    "10": [
      {
        "length": 32,
        "start": 161
      },
      {
        "length": 32,
        "start": 227
      }
    ]
  },
  "source": "//SPDX-License-Identifier: MIT\n\npragma solidity ^0.8.0;\n\nimport \"@chainlink/contracts/src/v0.8/interfaces/LinkTokenInterface.sol\";\nimport \"@chainlink/contracts/src/v0.8/interfaces/VRFCoordinatorV2Interface.sol\";\nimport \"@chainlink/contracts/src/v0.8/VRFConsumerBaseV2.sol\";\n\ncontract VRFConsumerV2 is VRFConsumerBaseV2 {\n  event RequestInitialized(uint256 requestId, uint64 subscriptionId);\n  event RequestFullfilled(uint256 requestId, uint256[] randomWords);\n\n  VRFCoordinatorV2Interface private COORDINATOR;\n  LinkTokenInterface private LINKTOKEN;\n\n  // VRF parameters\n  address private vrfCoordinator;\n  address private linkTokenAddress;\n  bytes32 private keyHash;\n  uint32 private callbackGasLimit = 100000;\n  uint16 private requestConfirmations = 3;\n\n  // Storage parameters\n  uint256[] private randomWords;\n  uint256 private requestId;\n\n  constructor() VRFConsumerBaseV2(vrfCoordinator) {\n    COORDINATOR = VRFCoordinatorV2Interface(vrfCoordinator);\n    LINKTOKEN = LinkTokenInterface(linkTokenAddress);\n  }\n\n  /**\n   * @notice Requests `_numWords` random numbers\n   * Assumes the subscription is funded sufficiently.\n   * Will revert if subscription is not set and funded.\n   * @param _numWords Number of random numbers\n   * @param _subscriptionId ID of the subscription\n   */\n  function requestRandomWords(uint32 _numWords, uint64 _subscriptionId)\n    internal\n  {\n    requestId = COORDINATOR.requestRandomWords(\n      keyHash,\n      _subscriptionId,\n      requestConfirmations,\n      callbackGasLimit,\n      _numWords\n    );\n\n    emit RequestInitialized(requestId, _subscriptionId);\n  }\n\n  /**\n   * @notice Fallback function that returns the random numbers\n   * @param _randomWords Random generated numbers\n   */\n  function fulfillRandomWords(\n    uint256, /* requestId */\n    uint256[] memory _randomWords\n  ) internal override {\n    randomWords = _randomWords;\n\n    emit RequestFullfilled(requestId, randomWords);\n  }\n\n  function _getRandomWords() external view returns (uint256[] memory) {\n    return randomWords;\n  }\n\n  function _getRandomWord(uint256 _index) external view returns (uint256) {\n    return randomWords[_index];\n  }\n}\n",
  "sourcePath": "/Users/niccolofant/dev/Solidity/pryze-protocol/pryze-core/contracts/Randomness/VRFConsumer.sol",
  "compiler": {
    "name": "solc",
    "version": "0.8.7+commit.e28d00a7.Emscripten.clang"
  },
  "schemaVersion": "3.4.3",
  "updatedAt": "2022-02-17T15:38:21.722Z",
  "devdoc": {
    "kind": "dev",
    "methods": {},
    "version": 1
  },
  "userdoc": {
    "kind": "user",
    "methods": {},
    "version": 1
  }
}