{
  "contractName": "VRFConsumerV2",
  "abi": [
    {
      "inputs": [
        {
          "internalType": "address",
          "name": "_controller",
          "type": "address"
        },
        {
          "internalType": "uint64",
          "name": "_subscriptionId",
          "type": "uint64"
        },
        {
          "internalType": "address",
          "name": "_vrfCoordinator",
          "type": "address"
        },
        {
          "internalType": "address",
          "name": "_link",
          "type": "address"
        },
        {
          "internalType": "bytes32",
          "name": "_keyHash",
          "type": "bytes32"
        }
      ],
      "stateMutability": "nonpayable",
      "type": "constructor"
    },
    {
      "inputs": [
        {
          "internalType": "address",
          "name": "have",
          "type": "address"
        },
        {
          "internalType": "address",
          "name": "want",
          "type": "address"
        }
      ],
      "name": "OnlyCoordinatorCanFulfill",
      "type": "error"
    },
    {
      "anonymous": false,
      "inputs": [
        {
          "indexed": true,
          "internalType": "address",
          "name": "oldController",
          "type": "address"
        },
        {
          "indexed": true,
          "internalType": "address",
          "name": "newController",
          "type": "address"
        }
      ],
      "name": "ControllerRoleTransferred",
      "type": "event"
    },
    {
      "anonymous": false,
      "inputs": [
        {
          "indexed": true,
          "internalType": "uint64",
          "name": "subscriptionId",
          "type": "uint64"
        },
        {
          "indexed": true,
          "internalType": "uint256",
          "name": "requestId",
          "type": "uint256"
        },
        {
          "indexed": false,
          "internalType": "uint256[]",
          "name": "randomWords",
          "type": "uint256[]"
        }
      ],
      "name": "RandomWordsReceived",
      "type": "event"
    },
    {
      "anonymous": false,
      "inputs": [
        {
          "indexed": true,
          "internalType": "uint64",
          "name": "subscriptionId",
          "type": "uint64"
        },
        {
          "indexed": true,
          "internalType": "uint256",
          "name": "requestId",
          "type": "uint256"
        }
      ],
      "name": "RandomWordsRequested",
      "type": "event"
    },
    {
      "inputs": [],
      "name": "controller",
      "outputs": [
        {
          "internalType": "address",
          "name": "",
          "type": "address"
        }
      ],
      "stateMutability": "view",
      "type": "function"
    },
    {
      "inputs": [
        {
          "internalType": "uint256",
          "name": "",
          "type": "uint256"
        }
      ],
      "name": "randomWords",
      "outputs": [
        {
          "internalType": "uint256",
          "name": "",
          "type": "uint256"
        }
      ],
      "stateMutability": "view",
      "type": "function"
    },
    {
      "inputs": [
        {
          "internalType": "uint256",
          "name": "requestId",
          "type": "uint256"
        },
        {
          "internalType": "uint256[]",
          "name": "randomWords",
          "type": "uint256[]"
        }
      ],
      "name": "rawFulfillRandomWords",
      "outputs": [],
      "stateMutability": "nonpayable",
      "type": "function"
    },
    {
      "inputs": [],
      "name": "requestId",
      "outputs": [
        {
          "internalType": "uint256",
          "name": "",
          "type": "uint256"
        }
      ],
      "stateMutability": "view",
      "type": "function"
    },
    {
      "inputs": [
        {
          "internalType": "address",
          "name": "_newController",
          "type": "address"
        }
      ],
      "name": "transferControllerRole",
      "outputs": [],
      "stateMutability": "nonpayable",
      "type": "function"
    },
    {
      "inputs": [
        {
          "internalType": "uint16",
          "name": "_requestConfirmations",
          "type": "uint16"
        },
        {
          "internalType": "uint32",
          "name": "_callbackGasLimit",
          "type": "uint32"
        },
        {
          "internalType": "uint32",
          "name": "_numWords",
          "type": "uint32"
        }
      ],
      "name": "requestRandomWords",
      "outputs": [],
      "stateMutability": "nonpayable",
      "type": "function"
    },
    {
      "inputs": [],
      "name": "getRandomWords",
      "outputs": [
        {
          "internalType": "uint256[]",
          "name": "",
          "type": "uint256[]"
        }
      ],
      "stateMutability": "view",
      "type": "function"
    },
    {
      "inputs": [
        {
          "internalType": "uint256",
          "name": "_index",
          "type": "uint256"
        }
      ],
      "name": "getRandomWord",
      "outputs": [
        {
          "internalType": "uint256",
          "name": "",
          "type": "uint256"
        }
      ],
      "stateMutability": "view",
      "type": "function"
    }
  ],
  "bytecode": "0x60a060405234801561001057600080fd5b50604051610a4f380380610a4f83398101604081905261002f91610129565b828561003a816100bd565b506001600160601b031960609190911b16608052600180546001600160a01b039485166001600160a01b03199182168117909255600280546001600160401b03909716600160a01b026001600160e01b03199097169490951693841795909517909355600380548516909317909255600480549093161790915560055550610196565b600080546001600160a01b038381166001600160a01b0319831681178455604051919092169283917fad78fb3403b687df144f8a6b1a4dc5452ab29ebc2b2e4dfce732c14be63b40eb9190a35050565b80516001600160a01b038116811461012457600080fd5b919050565b600080600080600060a0868803121561014157600080fd5b61014a8661010d565b60208701519095506001600160401b038116811461016757600080fd5b93506101756040870161010d565b92506101836060870161010d565b9150608086015190509295509295909350565b60805160601c6108946101bb60003960008181610144015261018601526108946000f3fe608060405234801561001057600080fd5b50600436106100875760003560e01c8063cc76b9111161005b578063cc76b911146100e3578063ce10b1fb146100f6578063f3229de51461010b578063f77c47911461011e57600080fd5b80626d6cae1461008c5780631fe543e3146100a857806387f06ed7146100bd578063beff730f146100d0575b600080fd5b61009560075481565b6040519081526020015b60405180910390f35b6100bb6100b636600461069e565b610139565b005b6100bb6100cb3660046105f0565b6101c6565b6100956100de36600461066c565b610270565b6100956100f136600461066c565b610291565b6100fe6102b8565b60405161009f919061076f565b6100bb610119366004610620565b610310565b6000546040516001600160a01b03909116815260200161009f565b336001600160a01b037f000000000000000000000000000000000000000000000000000000000000000016146101b85760405163073e64fd60e21b81523360048201526001600160a01b037f00000000000000000000000000000000000000000000000000000000000000001660248201526044015b60405180910390fd5b6101c282826104b3565b5050565b336101d96000546001600160a01b031690565b6001600160a01b0316146101ff5760405162461bcd60e51b81526004016101af906107ee565b6001600160a01b0381166102645760405162461bcd60e51b815260206004820152602660248201527f436f6e74726f6c6c65723a20434f4e54524f4c4c45525f49535f5a45524f5f4160448201526544445245535360d01b60648201526084016101af565b61026d81610527565b50565b6006818154811061028057600080fd5b600091825260209091200154905081565b6000600682815481106102a6576102a6610832565b90600052602060002001549050919050565b6060600680548060200260200160405190810160405280929190818152602001828054801561030657602002820191906000526020600020905b8154815260200190600101908083116102f2575b5050505050905090565b336103236000546001600160a01b031690565b6001600160a01b0316146103495760405162461bcd60e51b81526004016101af906107ee565b6101f48163ffffffff1611156103b15760405162461bcd60e51b815260206004820152602760248201527f565246436f6e73756d657256323a204d41585f574f5244535f4e554d4245525f60448201526614915050d2115160ca1b60648201526084016101af565b6001546005546002546040516305d3b1d360e41b81526004810192909252600160a01b900467ffffffffffffffff16602482015261ffff8516604482015263ffffffff8085166064830152831660848201526001600160a01b0390911690635d3b1d309060a401602060405180830381600087803b15801561043257600080fd5b505af1158015610446573d6000803e3d6000fd5b505050506040513d601f19601f8201168201806040525081019061046a9190610685565b6007819055600254604051600160a01b90910467ffffffffffffffff16907f315ea5ec8c6f88c503f80cdd84ef1e44d851e4ba11a5a6838148ea873c8674c290600090a3505050565b80516104c6906006906020840190610577565b50600754600260149054906101000a900467ffffffffffffffff1667ffffffffffffffff167f4041e3526c4867d3eaafcc3ec3bdae7c9394dabeeb4b33eb68cb17f1b054c9e1600660405161051b91906107b3565b60405180910390a35050565b600080546001600160a01b038381166001600160a01b0319831681178455604051919092169283917fad78fb3403b687df144f8a6b1a4dc5452ab29ebc2b2e4dfce732c14be63b40eb9190a35050565b8280548282559060005260206000209081019282156105b2579160200282015b828111156105b2578251825591602001919060010190610597565b506105be9291506105c2565b5090565b5b808211156105be57600081556001016105c3565b803563ffffffff811681146105eb57600080fd5b919050565b60006020828403121561060257600080fd5b81356001600160a01b038116811461061957600080fd5b9392505050565b60008060006060848603121561063557600080fd5b833561ffff8116811461064757600080fd5b9250610655602085016105d7565b9150610663604085016105d7565b90509250925092565b60006020828403121561067e57600080fd5b5035919050565b60006020828403121561069757600080fd5b5051919050565b600080604083850312156106b157600080fd5b8235915060208084013567ffffffffffffffff808211156106d157600080fd5b818601915086601f8301126106e557600080fd5b8135818111156106f7576106f7610848565b8060051b604051601f19603f8301168101818110858211171561071c5761071c610848565b604052828152858101935084860182860187018b101561073b57600080fd5b600095505b8386101561075e578035855260019590950194938601938601610740565b508096505050505050509250929050565b6020808252825182820181905260009190848201906040850190845b818110156107a75783518352928401929184019160010161078b565b50909695505050505050565b6020808252825482820181905260008481528281209092916040850190845b818110156107a7578354835260019384019392850192016107d2565b60208082526024908201527f436f6e74726f6c6c65723a2043414c4c45525f49535f4e4f545f434f4e54524f604082015263262622a960e11b606082015260800190565b634e487b7160e01b600052603260045260246000fd5b634e487b7160e01b600052604160045260246000fdfea26469706673582212200867cf8edcfa30689d56e65429fca6c711b5137aa0935b591ec14be96cbd421964736f6c63430008070033",
  "immutableReferences": {
    "10": [
      {
        "length": 32,
        "start": 324
      },
      {
        "length": 32,
        "start": 390
      }
    ]
  },
  "source": "//SPDX-License-Identifier: MIT\n\npragma solidity ^0.8.0;\n\nimport \"@chainlink/contracts/src/v0.8/interfaces/LinkTokenInterface.sol\";\nimport \"@chainlink/contracts/src/v0.8/interfaces/VRFCoordinatorV2Interface.sol\";\nimport \"@chainlink/contracts/src/v0.8/VRFConsumerBaseV2.sol\";\nimport \"../utils/Controller.sol\";\n\ncontract VRFConsumerV2 is Controller, VRFConsumerBaseV2 {\n  event RandomWordsRequested(\n    uint64 indexed subscriptionId,\n    uint256 indexed requestId\n  );\n  event RandomWordsReceived(\n    uint64 indexed subscriptionId,\n    uint256 indexed requestId,\n    uint256[] randomWords\n  );\n\n  VRFCoordinatorV2Interface internal VRF_COORDINATOR;\n  LinkTokenInterface internal LINK_TOKEN;\n\n  uint64 internal subscriptionId;\n  address internal vrfCoordinator;\n  address internal link;\n  bytes32 internal keyHash;\n\n  uint256[] public randomWords;\n  uint256 public requestId;\n\n  constructor(\n    address _controller,\n    uint64 _subscriptionId,\n    address _vrfCoordinator,\n    address _link,\n    bytes32 _keyHash\n  ) Controller(_controller) VRFConsumerBaseV2(_vrfCoordinator) {\n    VRF_COORDINATOR = VRFCoordinatorV2Interface(_vrfCoordinator);\n    LINK_TOKEN = LinkTokenInterface(_link);\n    subscriptionId = _subscriptionId;\n    vrfCoordinator = _vrfCoordinator;\n    link = _link;\n    keyHash = _keyHash;\n  }\n\n  function requestRandomWords(\n    uint16 _requestConfirmations,\n    uint32 _callbackGasLimit,\n    uint32 _numWords\n  ) external onlyController {\n    require(_numWords <= 500, \"VRFConsumerV2: MAX_WORDS_NUMBER_REACHED\");\n    requestId = VRF_COORDINATOR.requestRandomWords(\n      keyHash,\n      subscriptionId,\n      _requestConfirmations,\n      _callbackGasLimit,\n      _numWords\n    );\n\n    emit RandomWordsRequested(subscriptionId, requestId);\n  }\n\n  function fulfillRandomWords(\n    uint256, /* requestId */\n    uint256[] memory _randomWords\n  ) internal override {\n    randomWords = _randomWords;\n\n    emit RandomWordsReceived(subscriptionId, requestId, randomWords);\n  }\n\n  function getRandomWords() external view returns (uint256[] memory) {\n    return randomWords;\n  }\n\n  function getRandomWord(uint256 _index) external view returns (uint256) {\n    return randomWords[_index];\n  }\n}\n",
  "sourcePath": "/Users/niccolofant/dev/Solidity/pryze-protocol/pryze-core/contracts/test/VRFConsumerV2Test.sol",
  "compiler": {
    "name": "solc",
    "version": "0.8.7+commit.e28d00a7.Emscripten.clang"
  },
  "schemaVersion": "3.4.3",
  "updatedAt": "2022-02-24T09:48:37.351Z",
  "devdoc": {
    "kind": "dev",
    "methods": {},
    "version": 1
  },
  "userdoc": {
    "kind": "user",
    "methods": {},
    "version": 1
  }
}