{
  "contractName": "YieldSourceInteractor",
  "abi": [
    {
      "inputs": [
        {
          "internalType": "address",
          "name": "_controller",
          "type": "address"
        }
      ],
      "stateMutability": "nonpayable",
      "type": "constructor"
    },
    {
      "anonymous": false,
      "inputs": [
        {
          "indexed": true,
          "internalType": "address",
          "name": "oldController",
          "type": "address"
        },
        {
          "indexed": true,
          "internalType": "address",
          "name": "newController",
          "type": "address"
        }
      ],
      "name": "ControllerRoleTransferred",
      "type": "event"
    },
    {
      "anonymous": false,
      "inputs": [
        {
          "indexed": true,
          "internalType": "address",
          "name": "cToken",
          "type": "address"
        },
        {
          "indexed": false,
          "internalType": "uint256",
          "name": "cTokenAmount",
          "type": "uint256"
        }
      ],
      "name": "RedeemedFromCompound",
      "type": "event"
    },
    {
      "anonymous": false,
      "inputs": [
        {
          "indexed": true,
          "internalType": "address",
          "name": "token",
          "type": "address"
        },
        {
          "indexed": true,
          "internalType": "address",
          "name": "aaveLendingPool",
          "type": "address"
        },
        {
          "indexed": false,
          "internalType": "uint256",
          "name": "tokenAmount",
          "type": "uint256"
        }
      ],
      "name": "RedeemedUnderlyingFromAave",
      "type": "event"
    },
    {
      "anonymous": false,
      "inputs": [
        {
          "indexed": true,
          "internalType": "address",
          "name": "cToken",
          "type": "address"
        },
        {
          "indexed": false,
          "internalType": "uint256",
          "name": "tokenAmount",
          "type": "uint256"
        }
      ],
      "name": "RedeemedUnderlyingFromCompound",
      "type": "event"
    },
    {
      "anonymous": false,
      "inputs": [
        {
          "indexed": true,
          "internalType": "address",
          "name": "token",
          "type": "address"
        },
        {
          "indexed": true,
          "internalType": "address",
          "name": "aaveLendingPool",
          "type": "address"
        },
        {
          "indexed": false,
          "internalType": "uint256",
          "name": "amount",
          "type": "uint256"
        }
      ],
      "name": "SuppliedToAave",
      "type": "event"
    },
    {
      "anonymous": false,
      "inputs": [
        {
          "indexed": true,
          "internalType": "address",
          "name": "token",
          "type": "address"
        },
        {
          "indexed": true,
          "internalType": "address",
          "name": "cToken",
          "type": "address"
        },
        {
          "indexed": false,
          "internalType": "uint256",
          "name": "amount",
          "type": "uint256"
        }
      ],
      "name": "SuppliedToCompound",
      "type": "event"
    },
    {
      "inputs": [],
      "name": "controller",
      "outputs": [
        {
          "internalType": "address",
          "name": "",
          "type": "address"
        }
      ],
      "stateMutability": "view",
      "type": "function"
    },
    {
      "inputs": [
        {
          "internalType": "address",
          "name": "_newController",
          "type": "address"
        }
      ],
      "name": "transferControllerRole",
      "outputs": [],
      "stateMutability": "nonpayable",
      "type": "function"
    },
    {
      "inputs": [
        {
          "internalType": "address",
          "name": "_token",
          "type": "address"
        },
        {
          "internalType": "address",
          "name": "_cToken",
          "type": "address"
        },
        {
          "internalType": "uint256",
          "name": "_amount",
          "type": "uint256"
        }
      ],
      "name": "supplyToCompound",
      "outputs": [
        {
          "internalType": "uint256",
          "name": "",
          "type": "uint256"
        }
      ],
      "stateMutability": "nonpayable",
      "type": "function"
    },
    {
      "inputs": [
        {
          "internalType": "address",
          "name": "_cToken",
          "type": "address"
        },
        {
          "internalType": "uint256",
          "name": "_cTokenAmount",
          "type": "uint256"
        }
      ],
      "name": "redeemFromCompound",
      "outputs": [
        {
          "internalType": "uint256",
          "name": "",
          "type": "uint256"
        }
      ],
      "stateMutability": "nonpayable",
      "type": "function"
    },
    {
      "inputs": [
        {
          "internalType": "address",
          "name": "_cToken",
          "type": "address"
        },
        {
          "internalType": "uint256",
          "name": "_tokenAmount",
          "type": "uint256"
        }
      ],
      "name": "redeemUnderlyingFromCompound",
      "outputs": [
        {
          "internalType": "uint256",
          "name": "",
          "type": "uint256"
        }
      ],
      "stateMutability": "nonpayable",
      "type": "function"
    },
    {
      "inputs": [
        {
          "internalType": "address",
          "name": "_cToken",
          "type": "address"
        }
      ],
      "name": "balanceOfUnderlyingCompound",
      "outputs": [
        {
          "internalType": "uint256",
          "name": "",
          "type": "uint256"
        }
      ],
      "stateMutability": "nonpayable",
      "type": "function"
    },
    {
      "inputs": [
        {
          "internalType": "address",
          "name": "_cToken",
          "type": "address"
        }
      ],
      "name": "apyCompound",
      "outputs": [
        {
          "internalType": "uint256",
          "name": "",
          "type": "uint256"
        }
      ],
      "stateMutability": "nonpayable",
      "type": "function"
    },
    {
      "inputs": [
        {
          "internalType": "address",
          "name": "_cToken",
          "type": "address"
        }
      ],
      "name": "exchangeRateCompound",
      "outputs": [
        {
          "internalType": "uint256",
          "name": "",
          "type": "uint256"
        }
      ],
      "stateMutability": "nonpayable",
      "type": "function"
    }
  ],
  "bytecode": "0x608060405234801561001057600080fd5b506040516109ee3803806109ee83398101604081905261002f9161017b565b8061003981610040565b50506101ab565b336100536000546001600160a01b031690565b6001600160a01b0316146100ba5760405162461bcd60e51b8152602060048201526024808201527f436f6e74726f6c6c65723a2043414c4c45525f49535f4e4f545f434f4e54524f604482015263262622a960e11b60648201526084015b60405180910390fd5b6001600160a01b03811661011f5760405162461bcd60e51b815260206004820152602660248201527f436f6e74726f6c6c65723a20434f4e54524f4c4c45525f49535f5a45524f5f4160448201526544445245535360d01b60648201526084016100b1565b6101288161012b565b50565b600080546001600160a01b038381166001600160a01b0319831681178455604051919092169283917fad78fb3403b687df144f8a6b1a4dc5452ab29ebc2b2e4dfce732c14be63b40eb9190a35050565b60006020828403121561018d57600080fd5b81516001600160a01b03811681146101a457600080fd5b9392505050565b610834806101ba6000396000f3fe608060405234801561001057600080fd5b50600436106100885760003560e01c8063b7012d511161005b578063b7012d51146100ee578063c57d079814610101578063dbabb8ac14610114578063f77c47911461012757600080fd5b80633fccf1571461008d57806340883b83146100b357806383c78ba1146100c657806387f06ed7146100d9575b600080fd5b6100a061009b3660046106fe565b610142565b6040519081526020015b60405180910390f35b6100a06100c13660046106fe565b6101c2565b6100a06100d4366004610755565b610203565b6100ec6100e73660046106fe565b610313565b005b6100a06100fc366004610755565b6103bd565b6100a061010f3660046106fe565b6104b4565b6100a0610122366004610719565b6104fa565b6000546040516001600160a01b0390911681526020016100aa565b600080829050806001600160a01b031663bd6d894d6040518163ffffffff1660e01b8152600401602060405180830381600087803b15801561018357600080fd5b505af1158015610197573d6000803e3d6000fd5b505050506040513d601f19601f820116820180604052508101906101bb91906107a1565b9392505050565b600080829050806001600160a01b031663ae9d70b06040518163ffffffff1660e01b8152600401602060405180830381600087803b15801561018357600080fd5b6000336102186000546001600160a01b031690565b6001600160a01b0316146102475760405162461bcd60e51b815260040161023e906107ba565b60405180910390fd5b60405163852a12e360e01b81526004810183905283906000906001600160a01b0383169063852a12e390602401602060405180830381600087803b15801561028e57600080fd5b505af11580156102a2573d6000803e3d6000fd5b505050506040513d601f19601f820116820180604052508101906102c691906107a1565b9050846001600160a01b03167fc25a8f5e27dce98777338ec4aee97472a3135fa3138f8a68dc5e80101e0b5eb38560405161030391815260200190565b60405180910390a2949350505050565b336103266000546001600160a01b031690565b6001600160a01b03161461034c5760405162461bcd60e51b815260040161023e906107ba565b6001600160a01b0381166103b15760405162461bcd60e51b815260206004820152602660248201527f436f6e74726f6c6c65723a20434f4e54524f4c4c45525f49535f5a45524f5f4160448201526544445245535360d01b606482015260840161023e565b6103ba81610692565b50565b6000336103d26000546001600160a01b031690565b6001600160a01b0316146103f85760405162461bcd60e51b815260040161023e906107ba565b60405163db006a7560e01b81526004810183905283906000906001600160a01b0383169063db006a7590602401602060405180830381600087803b15801561043f57600080fd5b505af1158015610453573d6000803e3d6000fd5b505050506040513d601f19601f8201168201806040525081019061047791906107a1565b9050846001600160a01b03167f7af1cadbf4d1f9a6b3661ee5a63a6545c25cb96812cdb9240c9b08e7efaa3dc68560405161030391815260200190565b604051633af9e66960e01b815230600482015260009082906001600160a01b03821690633af9e66990602401602060405180830381600087803b15801561018357600080fd5b60003361050f6000546001600160a01b031690565b6001600160a01b0316146105355760405162461bcd60e51b815260040161023e906107ba565b60405163095ea7b360e01b81526001600160a01b038085166004830152602482018490528591859183169063095ea7b390604401602060405180830381600087803b15801561058357600080fd5b505af1158015610597573d6000803e3d6000fd5b505050506040513d601f19601f820116820180604052508101906105bb919061077f565b5060405163140e25ad60e31b8152600481018590526000906001600160a01b0383169063a0712d6890602401602060405180830381600087803b15801561060157600080fd5b505af1158015610615573d6000803e3d6000fd5b505050506040513d601f19601f8201168201806040525081019061063991906107a1565b9050856001600160a01b0316876001600160a01b03167f424069e3156bf34855b635abb0560fd46d738eafee6b95dbc746a478678b3d4a8760405161068091815260200190565b60405180910390a39695505050505050565b600080546001600160a01b038381166001600160a01b0319831681178455604051919092169283917fad78fb3403b687df144f8a6b1a4dc5452ab29ebc2b2e4dfce732c14be63b40eb9190a35050565b80356001600160a01b03811681146106f957600080fd5b919050565b60006020828403121561071057600080fd5b6101bb826106e2565b60008060006060848603121561072e57600080fd5b610737846106e2565b9250610745602085016106e2565b9150604084013590509250925092565b6000806040838503121561076857600080fd5b610771836106e2565b946020939093013593505050565b60006020828403121561079157600080fd5b815180151581146101bb57600080fd5b6000602082840312156107b357600080fd5b5051919050565b60208082526024908201527f436f6e74726f6c6c65723a2043414c4c45525f49535f4e4f545f434f4e54524f604082015263262622a960e11b60608201526080019056fea2646970667358221220395d98dd478b16093a3c1cc7d6730cfc28a88f0df3de0d51ef3cf484358585b064736f6c63430008070033",
  "immutableReferences": {},
  "source": "//SPDX-License-Identifier: MIT\n\npragma solidity ^0.8.0;\n\nimport \"@openzeppelin/contracts/token/ERC20/IERC20.sol\";\nimport \"../interfaces/ICToken.sol\";\nimport \"../interfaces/IYieldSourceInteractor.sol\";\nimport \"../utils/Controller.sol\";\n\ncontract YieldSourceInteractor is IYieldSourceInteractor, Controller {\n  event SuppliedToCompound(\n    address indexed token,\n    address indexed cToken,\n    uint256 amount\n  );\n  event RedeemedFromCompound(address indexed cToken, uint256 cTokenAmount);\n  event RedeemedUnderlyingFromCompound(\n    address indexed cToken,\n    uint256 tokenAmount\n  );\n\n  constructor(address _controller) Controller(_controller) {}\n\n  /**\n   * @notice Allow the controller to supply assets to Compound, minting cTokens\n   * @param _token The address of the token supplied\n   * @param _cToken The address of the corresponding cToken\n   * @param _amount The amount of tokens supplied\n   * @return The status of the minting\n   */\n  function supplyToCompound(\n    address _token,\n    address _cToken,\n    uint256 _amount\n  ) external override onlyController returns (uint256) {\n    IERC20 token = IERC20(_token);\n    ICToken cToken = ICToken(_cToken);\n\n    token.approve(_cToken, _amount);\n    uint256 mintResult = cToken.mint(_amount);\n\n    emit SuppliedToCompound(_token, _cToken, _amount);\n\n    return mintResult;\n  }\n\n  function redeemFromCompound(address _cToken, uint256 _cTokenAmount)\n    external\n    override\n    onlyController\n    returns (uint256)\n  {\n    ICToken cToken = ICToken(_cToken);\n\n    uint256 redeemResult = cToken.redeem(_cTokenAmount);\n\n    emit RedeemedFromCompound(_cToken, _cTokenAmount);\n\n    return redeemResult;\n  }\n\n  function redeemUnderlyingFromCompound(address _cToken, uint256 _tokenAmount)\n    external\n    override\n    onlyController\n    returns (uint256)\n  {\n    ICToken cToken = ICToken(_cToken);\n\n    uint256 redeemResult = cToken.redeemUnderlying(_tokenAmount);\n\n    emit RedeemedUnderlyingFromCompound(_cToken, _tokenAmount);\n\n    return redeemResult;\n  }\n\n  function balanceOfUnderlyingCompound(address _cToken)\n    external\n    override\n    returns (uint256)\n  {\n    ICToken cToken = ICToken(_cToken);\n    return cToken.balanceOfUnderlying(address(this));\n  }\n\n  function apyCompound(address _cToken) external override returns (uint256) {\n    ICToken cToken = ICToken(_cToken);\n    return cToken.supplyRatePerBlock();\n  }\n\n  function exchangeRateCompound(address _cToken)\n    external\n    override\n    returns (uint256)\n  {\n    ICToken cToken = ICToken(_cToken);\n    return cToken.exchangeRateCurrent();\n  }\n}\n",
  "sourcePath": "/Users/niccolofant/dev/Solidity/pryze-protocol/pryze-core/contracts/yield-source-interactor/YieldSourceInteractor.sol",
  "compiler": {
    "name": "solc",
    "version": "0.8.7+commit.e28d00a7.Emscripten.clang"
  },
  "schemaVersion": "3.4.3",
  "updatedAt": "2022-02-18T11:57:54.845Z",
  "devdoc": {
    "kind": "dev",
    "methods": {
      "supplyToCompound(address,address,uint256)": {
        "params": {
          "_amount": "The amount of tokens supplied",
          "_cToken": "The address of the corresponding cToken",
          "_token": "The address of the token supplied"
        },
        "returns": {
          "_0": "The status of the minting"
        }
      }
    },
    "version": 1
  },
  "userdoc": {
    "kind": "user",
    "methods": {
      "supplyToCompound(address,address,uint256)": {
        "notice": "Allow the controller to supply assets to Compound, minting cTokens"
      }
    },
    "version": 1
  }
}